:100000000C9473010C949B010C949B010C949B0128
:100010000C949B010C949B010C949B010C949B01F0
:100020000C949B010C949B010C949B010C949B01E0
:100030000C949B010C949B010C949B010C949B01D0
:100040000C9406110C949B010C9484030C945E0395
:100050000C949B010C949B010C949B010C949B01B0
:100060000C949B010C949B01AED580A83FD300401B
:100070008D142002A1C8DA12817FD9F1DB40A4A639
:10008000AF000005072061000000000000005F00D5
:10009000000007000700147F147F14242A7F2A120F
:1000A00023130864623649552250000503000000FE
:1000B0001C2241000041221C00082A1C2A080808B2
:1000C0003E0808005030000008080808080060607A
:1000D000000020100804023E5149453E00427F4086
:1000E0000042615149462141454B311814127F109D
:1000F00027454545393C4A494930017109050336D0
:1001000049494936064949291E003636000000563D
:10011000360000000814224114141414144122144F
:1001200008000201510906324979413E7E11111140
:100130007E7F494949363E414141227F4141221C4F
:100140007F494949417F090901013E414151327FBF
:100150000808087F00417F41002040413F017F089F
:100160001422417F404040407F0204027F7F040808
:10017000107F3E4141413E7F090909063E41512120
:100180005E7F09192946464949493101017F01012C
:100190003F4040403F1F2040201F7F2018207F63AA
:1001A00014081463030478040361514945430000B3
:1001B0007F4141020408102041417F0000040201F8
:1001C00002044040404040000102040020545454C6
:1001D000787F484444383844444420384444487F75
:1001E0003854545418087E090102081454543C7FB2
:1001F0000804047800447D40002040443D00007F16
:1002000010284400417F40007C041804787C0804D6
:10021000047838444444387C14141408081414181E
:100220007C7C080404084854545420043F44402073
:100230003C4040207C1C2040201C3C4030403C4442
:10024000281028440C5050503C4464544C4400083E
:1002500036410000007F0000004136080008082AEF
:100260001C08081C2A0808000609090668001980ED
:10027000400000030C0F30333C3FC0C3CCCFF0F341
:10028000FCFF00000008000201000003040700005A
:100290000000000000000001020304051112131405
:1002A00015160A0B0C0D0E0F00000000250028008B
:1002B0002B0000000000240027002A00040404048E
:1002C0000404040402020202020203030303030300
:1002D00001020408102040800102040810200102DD
:1002E00004081020FB1611241FBECFEFD8E0DEBF9C
:1002F000CDBF23E0A2E8B1E001C01D92AC3EB20741
:10030000E1F711E0A0E0B1E0EAE3F4E302C0059018
:100310000D92A238B107D9F711E0C3E7D1E004C0CC
:100320002197FE010E94FE17C237D107C9F70E942C
:1003300050110C941B1A0C940000CF92DF92EF9294
:10034000FF920F931F93CF93DF936C017A018B0180
:10035000C0E0D0E0CE15DF0589F0D8016D918D01A8
:10036000D601ED91FC910190F081E02DC601099537
:10037000892B11F47E0102C02196ECCFC701DF91D9
:10038000CF911F910F91FF90EF90DF90CF90089544
:10039000FC01538D448D252F30E0842F90E0821B8B
:1003A000930B541710F0CF96089501970895FC0110
:1003B000918D828D981761F0828DDF01A80FB11D9C
:1003C0005D968C91928D9F5F9F73928F90E00895C0
:1003D0008FEF9FEF0895FC01918D828D981731F07A
:1003E000828DE80FF11D858D90E008958FEF9FEFCE
:1003F0000895FC01918D228D892F90E0805C9F4FA4
:10040000821B91098F73992708958BE891E00E94D0
:10041000F90121E0892B09F420E0822F0895FC01E5
:10042000848DDF01A80FB11DA35ABF4F2C91848D7D
:1004300090E001968F739927848FA689B7892C93B2
:10044000A089B1898C9180648C93938D848D98134D
:1004500006C00288F389E02D80818F7D8083089516
:10046000EF92FF920F931F93CF93DF93EC0181E004
:10047000888F9B8D8C8D981305C0E889F9898081C0
:1004800085FD24C0F62E0B8D10E00F5F1F4F0F73FC
:100490001127E02E8C8DE8120CC00FB607FCFACFA6
:1004A000E889F989808185FFF5CFCE010E940F028E
:1004B000F1CF8B8DFE01E80FF11DE35AFF4FF08263
:1004C0000B8FEA89FB898081806207C0EE89FF89F2
:1004D0006083E889F98980818064808381E090E08D
:1004E000DF91CF911F910F91FF90EF900895CF93DF
:1004F000DF93EC01888D8823C9F0EA89FB8980812C
:1005000085FD05C0A889B9898C9186FD0FC00FB6FD
:1005100007FCF5CF808185FFF2CFA889B9898C913E
:1005200085FFEDCFCE010E940F02E7CFDF91CF9183
:10053000089580E090E0892B29F00E940502811146
:100540000C9400000895CF93DF93DC01FB01EC01D4
:10055000C359DE4F688179812296988182814081DA
:100560005181823028F0BA0181E0838390E027C076
:10057000ED01C059DE4F28813981EA01C223D3231E
:10058000D2960D90BC91A02DCA17DB07C1F4C9010A
:100590008095909563E0880F991F6A95E1F7842311
:1005A0009523892B51F083E0220F331F8A95E1F7C1
:1005B0002760BA016223732301C0BA0195E07183F9
:1005C0006083928381E0DF91CF9108950E94FB19AF
:1005D000CF93DF93EC019CB59F7D9CBD9CB5937F31
:1005E0009CBD9CB59C7F9CBD9DB591609DBD8A8145
:1005F0000E941B108C899D89DF91CF910C9467100C
:100600006115710579F0FB0101900020E9F7319740
:10061000AF01461B570BDC01ED91FC910280F38189
:10062000E02D099480E090E008954F925F926F92E0
:100630007F92EF92FF920F931F93CF93DF93CDB7EB
:10064000DEB7A1970FB6F894DEBF0FBECDBF7C0119
:10065000FA01CB0119A2223008F42AE08E010F5DC5
:100660001F4F422E512C612C712CBF01A30192010E
:100670000E94D317F901CA01015011096A3014F41C
:10068000605D01C0695CD8016C93232B242B252B62
:1006900061F7B801C7010E940003A1960FB6F89454
:1006A000DEBF0FBECDBFDF91CF911F910F91FF90A5
:1006B000EF907F906F905F904F9008951F920F92F0
:1006C0000FB60F9211242F933F934F935F936F9325
:1006D0007F938F939F93AF93BF93EF93FF938BE899
:1006E00091E00E940F02FF91EF91BF91AF919F9116
:1006F0008F917F916F915F914F913F912F910F90CB
:100700000FBE0F901F9018951F920F920FB60F9269
:1007100011242F938F939F93EF93FF93E0919B016D
:10072000F0919C018081E091A101F091A20182FDF4
:1007300012C090818091A4018F5F8F732091A501D9
:10074000821751F0E091A401F0E0E557FE4F958F3C
:100750008093A40101C08081FF91EF919F918F91BF
:100760002F910F900FBE0F901F90189561E00C9481
:10077000E80260E00C94E802EF92FF921F93CF939F
:10078000DF931F92CDB7DEB77C0169830E94B90366
:100790006981862F0E94C60B182FC7010E94B603DD
:1007A000812F0F90DF91CF911F91FF90EF900895CF
:1007B00061EE0C94BC03EF92FF921F93CF93DF93F3
:1007C00000D0CDB7DEB77C014A8369830E94B903AC
:1007D0006981862F8F7180620E94C60B182F4A8113
:1007E000842F0E94C60BC7010E94B603812F0F9071
:1007F0000F90DF91CF911F91FF90EF900895CF92CE
:10080000DF92EF92FF920F931F93CF93DF9300D06D
:100810001F92CDB7DEB77C01142F2A835B836983D7
:100820000E94B9036981862F8F7180620E94C60B76
:10083000082FC12E5B81D52E2A81120F1C1531F095
:10084000F60181916F010E94C60BF8CFC7010E948B
:10085000B603802F0F900F900F90DF91CF911F91D3
:100860000F91FF90EF90DF90CF900895EF92FF925D
:100870001F93CF93DF931F92CDB7DEB77C016983BF
:100880000E94B9036981862F8F710E94C60B8FEF7A
:100890000E94C60B182FC7010E94B603812F0F902C
:1008A000DF91CF911F91FF90EF900895EF92FF920B
:1008B0000F931F93CF938C017B0166E00E94360457
:1008C000C82FC77D82E0E816F10431F4C0628BE9DD
:1008D00090E0A0E0B0E00DC0EA94EF2829F085E5B3
:1008E00090E0A0E0B0E005C0C86081E490E0A0E046
:1008F000B0E0F801808B918BA28BB38B4C2F66E01C
:10090000C8010E94DB0366E0C8010E94360491E042
:100910008C1390E0892FCF911F910F91FF90EF9052
:100920000895CF93DF93EC0160E00E94360481FDCF
:100930000EC0482F426060E0CE010E94DB0365E0FC
:1009400070E080E090E0DF91CF910C947010DF9127
:10095000CF910895FC0120813181828193812817F4
:10096000390719F0822F0C941B100895CF93DF9351
:10097000EC0160E00E94AA04888999890E946710AE
:100980006DE1CE010E94360481FF07C088899989F4
:100990000E946710CE010E94D80360E0CE010E9441
:1009A0003604482F4E7F60E0CE010E94DB0362E0F8
:1009B000CE010E943604E6E9F2E0E49141E050E025
:1009C00001C0440FEA95EAF7482B62E0CE01DF91BF
:1009D000CF910C94DB03CF93DF93EC010E94910441
:1009E00060E0CE010E943604482F416060E0CE01F5
:1009F0000E94DB0340E767E0CE010E94DB0361E079
:100A0000CE010E94AA048985882349F02E85AE0173
:100A1000475F5F4F6AE0CE010E94FF0314C062E0AF
:100A2000CE010E943604E6E9F2E0E49121E030E0F4
:100A300001C0220FEA95EAF72095422F482362E091
:100A4000CE010E94DB036DE1CE010E94360481FFDE
:100A500005C0CE01DF91CF910C94D803DF91CF91E7
:100A600008951F93CF93DF93EC01888199812A81A8
:100A70003B818217930711F00E946C0E8A819B8143
:100A8000288139812817390711F00E946C0E1FB791
:100A9000F89480918A01811124C0E6ECF2E08491FF
:100AA000EAEDF2E09491E82FF0E0EE0FFF1FEE5434
:100AB000FD4FA591B491EC91E92321F461E08AE026
:100AC0000E941B108AE00E946C0E8CB580618CBD68
:100AD0008CB580648CBD8DE00E946C0E8BE00E9412
:100AE0006C0E80918A018F5F80938A011FBF60E046
:100AF000CE010E94AA0461E0CE010E94E80265E0F6
:100B000070E080E090E00E9470104CE060E0CE0168
:100B10000E94DB034FE564E0CE010E94DB0362E04C
:100B200070E0CE010E945604882311F081E08E838C
:100B300066E0CE010E943604182F60E070E0CE011E
:100B40000E945604CE010E94B90380E50E94C60BA4
:100B500083E70E94C60BCE010E94B60340E06DE120
:100B6000CE010E94DB0340E06CE1CE010E94DB037A
:100B7000188640E767E0CE010E94DB034CE465E0A5
:100B8000CE010E94DB0362EECE010E94BC03CE01C7
:100B90000E94D803CE010E94910460E0CE010E9421
:100BA0003604482F4E7F60E0CE010E94DB031150D7
:100BB00081E01E3F08F080E0DF91CF911F91089502
:100BC000CF93DF93CDB7DEB728970FB6F894DEBF8B
:100BD0000FBECDBFAC019CEC99839A839B839C8311
:100BE0009D831E821F8218869A01E1E0211531053E
:100BF000C9F0611103C04115510569F4D901A7700D
:100C0000BB27AD5EBE4F8C91A1E0B0E0AC0FBD1F25
:100C1000AE0FB11D8C9383E0369527958A95E1F749
:100C2000EF5FE4CF611102C0452B39F4E62FF0E00D
:100C3000ED5EFE4F8081898305C0F0E0EE5EFE4FE1
:100C400080818A8329813A814B815C816D817E819B
:100C50008F81988528960FB6F894DEBF0FBECDBF62
:100C6000DF91CF9108956F927F928F929F92AF9272
:100C7000BF92CF92DF92EF92FF920F931F93CF9389
:100C8000DF93CDB7DEB728970FB6F894DEBF0FBE5F
:100C9000CDBF8C01CB01D22E642F0E94E00539011B
:100CA0004A015B017C01F80182A582FD04C087A591
:100CB00090A90E94B604F80187A590A9DD2011F043
:100CC00060E001C061E00E94D90EF801C7A4D0A87D
:100CD00069827A828B829C82AD82BE82EF82F886A4
:100CE000F6012685AE014F5F5F4F6AE0C6010E94A4
:100CF000FF03F6012685AE014F5F5F4F60E1C6013D
:100D00000E94FF03F601478161E1C6010E94DB03F7
:100D1000F801B4A8C7A4D0A86FEFC6010E94BC0315
:100D200080FF0DC06FEFC6010E94BC0384FFF4CFAB
:100D300040E167E0C6010E94DB03F12C30C0F60100
:100D4000F780EF2CBF1408F4EB2CF601808581119D
:100D500002C0FE1801C0F12CC6010E94B90380EA4E
:100D60000E94C60B5801F7E0AF0EB11CEA0CEA1462
:100D700031F0F50181915F010E94C60BF8CFFF2091
:100D800029F080E00E94C60BFA94F9CFC6010E94B8
:100D9000B60361E0C6010E94AA04FF24F394F8019F
:100DA00082A582FD0FC0418152816381748187A534
:100DB00090A90E94B610F82E60E0F80187A590A9CE
:100DC0000E94D90E8F2D28960FB6F894DEBF0FBE65
:100DD000CDBFDF91CF911F910F91FF90EF90DF90EA
:100DE000CF90BF90AF909F908F907F906F9008951D
:100DF000CF92DF92EF92FF920F931F93CF93DF93E7
:100E000000D000D0CDB7DEB7FC0195859B01211540
:100E1000310561F0822F8770863030F483E036959B
:100E200027958A95E1F7F3CF80E097C09154EE249F
:100E3000E3949F3708F0E12CF42E6B018F011982A7
:100E40001A821B821C827A8369834B83BE016F5F87
:100E50007F4FCF010E94A30269817A812C814B814F
:100E6000C8010E943306F1E0FF1227C0811102C0C1
:100E7000F12C6AC089819A818C159D0501F5EE20BF
:100E8000F1F081ECF80185878781908592878187D1
:100E90009A838983FB821C82BE016F5F7F4FC801EA
:100EA0000E94A30288E0F80184AB69817A812C81D9
:100EB0004B81C8010E94330602C08823C9F2898190
:100EC0009A818C159D0519F4FF24F3943DC0FF20F1
:100ED00019F0F3E0FF12F8CFEE20B1F3F80182A58C
:100EE00082FF11C0418152816381748187A590A9DD
:100EF0000E94B610F80182A58B7F82A760E087A5CB
:100F000090A90E94D90EF80187A590A90E94EB0430
:100F10000E94AA106B017C01C8010E94CD0B813C8C
:100F200099F20E94AA10AB01BC014C195D096E092F
:100F30007F09F80185819681A0E0B0E084179507CC
:100F4000A607B70748F794CFF80182A582FD04C031
:100F500087A590A90E94EB048F2D0F900F900F9002
:100F60000F90DF91CF911F910F91FF90EF90DF9045
:100F7000CF900895CF93DF93EC019C818E819817D9
:100F800058F4E881F9810084F185E02D42E0CE013A
:100F900009958C818F5F8C83DF91CF91089508959F
:100FA00080E090E00895EF92FF920F931F93CF930C
:100FB000DF93EC017B01BA018AA99BA9F701918318
:100FC0008083DE01179688E001900D928A95E1F703
:100FD0002115310529F0A901CE010F960E94001AB2
:100FE000F701628173810833110561F06034710586
:100FF00011F444E001C043E06017710709F442E0D6
:10100000B80101C040E0CE01DF91CF911F910F9157
:10101000FF90EF900C94F8068F929F92AF92BF9240
:10102000CF92DF92EF92FF920F931F93CF93DF93B4
:10103000EC017B01CCA8D12C860108501109DB0101
:1010400016969C918CE6890F833020F0983C09F02D
:10105000CFC003C0943909F4E4C08BE6890F823015
:1010600018F0983C09F08EC06E0159EDC50ED11CE8
:10107000D6012D913C91A801420F531F41395105D2
:1010800020F0C852DF4F1882B1C05E01B8EDAB0E40
:10109000B11CF5018081882309F415C1963929F026
:1010A000D70117969C919813A1C0FE01EB52FF4FF8
:1010B00040815181F701848195814817590709F0D2
:1010C00095C04E01FBED8F0E911CD4018D919C912A
:1010D000A801BE01615F7F4F820F931F0E94001A1B
:1010E000F60180819181080F191F11830083D701B8
:1010F00016968C91863929F0F50180818150808384
:1011000073C0D5011C92F7018781FE01E952FF4FA0
:101110008083833809F483C07E01FFECEF0EF11C5D
:10112000F701A081B181CE018A1B9B0B8B539F4F8E
:1011300080179107F8F032968AE001900D928A9517
:10114000E1F7D7018D919C91F40160817181D60105
:101150004D915C910A960E94001AF601808191815E
:101160000A96D7012D913C911197820F931F8D9371
:101170009C933AC08FA598A90E94B6048AA5816065
:101180008AA734C07E01BFECEB0EF11CF701A081F1
:10119000B181CE01C5969D01281B390BC901800F75
:1011A000911F8B39910510F5E85CF10988E00190F9
:1011B0000D928A95E1F7D701ED91FC911197118776
:1011C00000878D919C91BE01615F7F4FA8010A96B7
:1011D0000E94001AB2E0CB0ED11CF70180819181F0
:1011E000C80ED91ED182C08281E06DC080E06BC084
:1011F000933841F6DE01AF52BF4FFE01379688E0CB
:1012000001900D928A95E1F7FE01E552FF4FCE0164
:101210000F9691838083C752DF4F1983088382E042
:1012200052C0F7018781873008F02BCFFE01EB52C7
:10123000FF4F40815181D70114962D913C91159714
:1012400034976F014217530739F4408151812D9132
:101250003C914217530741F2F8E18F9FC0011124DE
:10126000FE01E153FF4F20813181AE01421B530B40
:101270009A012B533F4F281739073CF48AA5816008
:101280008AA78FA598A90E94B604FE01379688E028
:10129000D60101900D928A95E1F7FE01E552FF4FCC
:1012A000BE01615F7F4FA801808191810E94001A79
:1012B000FE01E752FF4F11830083C852DF4F888140
:1012C0008150888391CFDF91CF911F910F91FF9033
:1012D000EF90DF90CF90BF90AF909F908F90089548
:1012E000DC01ED91FC910084F185E02D40E0099452
:1012F0000F931F93CF938C01FC0164839085C62FBD
:10130000C90F6C2F6F70C8010E9470096C2F629515
:101310006F706061C801CF911F910F910C9470099B
:101320000F931F93CF93DF931F92CDB7DEB78C013E
:10133000FC018681681728F4C80149830E94780956
:101340004981F8018781869586958695481758F4D6
:101350004583642F606BC8010F90DF91CF911F917F
:101360000F910C9470090F90DF91CF911F910F9105
:101370000895CF92DF92EF92FF920F931F93CF9336
:10138000DF93EC01F62EC42ED22E8F8186958695A2
:101390008695081710F00FEF080F1D2D011780F02C
:1013A000412F6F2DCE010E949009EF2CCE1430F00A
:1013B00060E0CE010E94BA07E394F8CF1F5FEECF42
:1013C0004D2D6F2DCE01DF91CF911F910F91FF9089
:1013D000EF90DF90CF900C9490092F923F924F9214
:1013E0005F926F927F928F929F92AF92BF92CF92B5
:1013F000DF92EF92FF920F931F93CF93DF93CDB7BE
:10140000DEB727970FB6F894DEBF0FBECDBFDC0165
:101410001B960D911C911C970115110509F462C1D1
:101420009F838E83F801B491319644913196549004
:101430003196A491EA2EF12CF7E0EF0EF11C23E097
:10144000F594E7942A95E1F7EB82F80134967491CC
:101450003196E491671758F0862F90E02E2F30E0F8
:10146000F901E70FF11D8E179F070CF473C06D3063
:1014700069F4AE81BF8116968C91882309F467C008
:1014800060E08E819F810E94780961C06A3009F016
:1014900029C1EE81FF8181856581D62E8E9DD00C7C
:1014A00011248781869586958695D81630F0828599
:1014B000882319F082E08287D12C4D2D60E08E8147
:1014C0009F810E949009AE81BF811A968C911A97D4
:1014D000823008F43CC015962C9115971B96ED911F
:1014E000FC911C97309741F03396E49119960C913A
:1014F000E09FE02D112401C0E0E08FEF820F0E2F5E
:1015000010E0095F1F4F93E0159507959A95E1F755
:10151000080FEE81FF81468141506481CF010E9416
:10152000B909AE81BF8119968C9119976D2D8E9D49
:10153000600D1124660F660F660F17968C91861743
:1015400008F460E060648E819F810E94700981E0F0
:1015500090E0CAC050E05B2BC8010696671BEE8185
:10156000FF81F185F9834230510588F4452B09F05C
:1015700019825E9C90015F9C300D1124629F800156
:10158000639F100D1124080F191F412C24C0EA2F4E
:10159000E77021F048E0442E4E1A01C0412CA82FDC
:1015A000FC0140E050E07E2F7A1B761728F47491FE
:1015B000470F511D3196F7CFFC01E60FF11D5490F6
:1015C0004E9D80014F9D100D5E9D100D1124020F48
:1015D000131F080F191FAE81BF811496BC91BC83E5
:1015E000EE81FF813580652C712CCC24C394D12CE5
:1015F000812C912C7FEF7C0D7A838B81781708F0FA
:101600005FC0212CAE81BF8119968C91281608F0FD
:1016100051C07A81711102C0222051F0AE81BF8188
:1016200015964C9115974F5F6C81CD010E949009E2
:10163000A12CB12CA51488F5F501E80DF91DE00FDA
:10164000F11F2491442061F0CE14DF0449F4E22F0D
:10165000F0E0042C02C0F595E7950A94E2F72E2FEE
:10166000EE81FF818185823079F4E22F2110E295AD
:10167000EF70F0E0EE58FD4F2491622F8E819F8134
:101680002D830E94BA072D81622F8E819F810E9437
:10169000BA07FFEFAF1ABF0ACDCFB12C7981B716C9
:1016A00039F060E08E819F810E94BA07B394F6CF33
:1016B0002394A8CF860C971CBFEFCB1ADB0A9ACFD6
:1016C000AE81BF8117968C911797869586958695E2
:1016D000381608F03CCF15963C921597632D606B39
:1016E000CD0133CF80E090E027960FB6F894DEBFAF
:1016F0000FBECDBFDF91CF911F910F91FF90EF9063
:10170000DF90CF90BF90AF909F908F907F906F9021
:101710005F904F903F902F9008950F93CF93DF935A
:10172000EC010F8106950695069501504E814150BA
:1017300020E060E00E94B90981E09A85911101C022
:1017400080E08A8760E4CE01DF91CF910F910C9405
:101750007009DC01862F262F30E0F901E454FD4F9B
:10176000E491F0E0EE0FFF1FE855FD4F45915491D5
:1017700013965C934E931297F901E053FD4FE49159
:10178000EC93E0951196EC930C946C0E8EBD0000DA
:101790000DB407FEFDCF8EB508953F924F925F9234
:1017A0006F927F928F929F92AF92BF92CF92DF9271
:1017B000EF92FF920F931F93CF93DF93EC019AA5C3
:1017C000892F827091FD17C0FE01E153FF4FAE01DA
:1017D0004B5C5F4F90FD07C020813181241B350B8E
:1017E0002937310544F0208131814217530708F42D
:1017F00029C19E7F9AA78E01095F1F4F502EEE24AC
:10180000E394F12C6E0181E9C81A8EEFD80A74E2D4
:10181000A72E79E0B72E8FA498A8F401808191813A
:101820008F3F910511F480E00DC1F4018281938115
:101830008F3F9105C1F367E1C4010E943604982FE0
:101840009170792E80FDEFCF6FEFC4010E94BC0331
:101850008FA498A8C4010E94B90380E60E94C60B19
:101860008FEF0E94C60B682EC4010E94B603F0E2FF
:10187000F61508F056C062EEC4010E94BC0362E097
:1018800070E080E090E00E9470107CAA97E09715CD
:1018900038F06AE070E080E090E00E947010BBCF0A
:1018A0008FA498A8F4018781472C871508F4482E47
:1018B000F4019085911103C0382E341801C0312CE9
:1018C000C4010E94B90381E60E94C60B3801450C91
:1018D000461439F08FEF0E94C60BF30181933F014C
:1018E000F7CF732C772029F08FEF0E94C60B7A94E4
:1018F000F9CFC4010E94B60340E767E0C4010E942B
:10190000DB0369857A85CB01009769F0282F277062
:10191000263008F080CF53E0969587955A95E1F7E9
:10192000F3CF762CB2CF8D852AA93BA96217730716
:10193000E1F5823809F46FCF803881F46432794060
:10194000D1F0BA86A98642E064E279E0CE010E9435
:10195000F8066AE070E080E090E040C0833C59F413
:101960006115710541F078876F831A86198640E00A
:1019700060E070E063C099A5992319F087FF0CC05F
:1019800002C0813C49F49CE6980F933028F0883CD3
:1019900019F0833809F056C0B801CE010E940C0836
:1019A000823009F038CF83E84DC06034710509F00A
:1019B00044C0823CC9F48AA583FD2DCF243289E03E
:1019C000380709F428CF8F8198859A8789873887C7
:1019D0002F83F601608170E080E090E00E9470103B
:1019E00069857A8542E02AC0B801CE010E940C08C0
:1019F000982E88818823E9F029A9222379F030E004
:101A000021503109C901880F991F280F391FB701CB
:101A100002C0660F771F2A95E2F702C060E070E00F
:101A200083E0660F771F8A95E1F744E0CE010E94BC
:101A3000F806F2E09F12EFCEB6CF41E0CE010E9451
:101A4000F806E9CEDF91CF911F910F91FF90EF90B3
:101A5000DF90CF90BF90AF909F908F907F906F90CE
:101A60005F904F903F9008952F923F924F925F92D8
:101A70006F927F928F929F92AF92BF92CF92DF929E
:101A8000EF92FF920F931F93CF93DF93EC017B01B3
:101A90005A01690148010E94AA104BA45CA46DA4DC
:101AA0007EA4DC01CB0184199509A609B7094997E1
:101AB000A105B10528F4CE010E94CD0B87FFEBCF25
:101AC0008CE891E00197F1F789E1C816D104B0F4F0
:101AD00088E08C0D8CAB84019601A501B701CE0185
:101AE0000E94D307182F882311F011E092C00E94A2
:101AF000AA106BA77CA78DA79EA78BC0E1E9CE1685
:101B0000D10408F085C0C60168E170E00E94BF17EB
:101B100021E0892B09F420E0C60168E170E00E9411
:101B2000BF17722E760EF701828193818034910562
:101B300039F08AA584608AA78FA598A90E94B60467
:101B4000F7014680512C612C84E9282E96E9392E24
:101B5000F7017782F1E07F1204C0F70136824782F5
:101B600008C0611003C0F701268203C085E9F701B0
:101B70008683E8E16E9EA00111249601241B350B9B
:101B80002931310510F028E130E088E0820F8CAB7C
:101B90004A0D5B1D8401B701CE010E94D307182FA7
:101BA00081110BC062E070E080E090E00E94701054
:101BB0005394F2E0F51560F606C07A9463947720AA
:101BC00011F0512CC5CFF70146828AA582FF12C0C1
:101BD00049815A816B817C818FA598A90E94B6109A
:101BE000182F8FA598A90E94EB0460E08FA598A9F3
:101BF0000E94D90E8AA58B7F8AA7112349F07720EE
:101C000009F473CF0E94AA106BA77CA78DA79EA78B
:101C100010E0812FDF91CF911F910F91FF90EF90F6
:101C2000DF90CF90BF90AF909F908F907F906F90FC
:101C30005F904F903F902F900895CF93DF93EC01EA
:101C4000862FF894EB89FC892081442319F0998927
:101C5000922B02C09A8992239083789490E59CBD40
:101C600091E09DBDF894EF85F88920819E859223AF
:101C7000908378940E94C60BF894EF85F889908140
:101C80008D85892B80837894DF91CF9108953FB71C
:101C9000F8948091E4039091E503A091E603B0915C
:101CA000E70326B5A89B05C02F3F19F00196A11D9B
:101CB000B11D3FBFBA2FA92F982F8827820F911DE2
:101CC000A11DB11DBC01CD0143E0660F771F881F28
:101CD000991F4A95D1F7089590E0FC01E053FD4F1C
:101CE0002491FC01E454FD4F8491882399F090E005
:101CF000880F991FFC01EE54FD4FA591B491FC0192
:101D0000E855FD4F859194918FB7F894EC91E22BB3
:101D1000EC938FBF0895CF92DF92EF92FF920F93D3
:101D20001F93CF93DF93EC016B01770FEE08FF0851
:101D3000F7FE16C0E881F9810190F081E02D6DE297
:101D400009958C0144275527BA014C195D096E0984
:101D50007F092AE0CE010E941503080F191F06C053
:101D60002AE0B701A6010E9415038C0166E771E025
:101D7000CE010E940003800F911FDF91CF911F9130
:101D80000F91FF90EF90DF90CF900895CF93DF9366
:101D9000BC018AEC93E00E940003EC0166E771E06D
:101DA0008AEC93E00E9400038C0F9D1FDF91CF917E
:101DB00008951F93CF93DF93EC01162F61E00E94EB
:101DC0003604482F112311F0416001C04E7F61E0BD
:101DD000CE01DF91CF911F910C94DB037F928F9204
:101DE0009F92AF92BF92CF92DF92EF92FF920F93AA
:101DF0001F93CF93DF93CDB7DEB728970FB6F89434
:101E0000DEBF0FBECDBFFC019B012115310559F08E
:101E1000822F8770863008F0FAC0A3E036952795A8
:101E2000AA95E1F7F2CF62AB73AB87A590A9DC016D
:101E30002D913C912F3F310509F4E9C0DC01129648
:101E40002D913C9113972F3F310509F4E0C0E72E07
:101E5000F62E8F0160E00E94D90EF801C7A4D0A829
:101E60006DE1C6010E943604482F44606DE1C60151
:101E70000E94DB036CE1C6010E943604482F4F63C9
:101E80006CE1C6010E94DB0381E0D60118968C93B9
:101E9000F80182A993A966E070E00E94BF17482F5D
:101EA000440F4B5FF0E14F9FA0011124456064E0B7
:101EB000D8019F968D919C91D0970E94DB0389E178
:101EC00090E0A0E0B0E0F80181839283A383B48323
:101ED0008BE490E09683858382A993A940E02FEF5D
:101EE0003FEFB90168237923672B39F073E0220FA4
:101EF000331F7A95E1F74F5FF4CFF80141AB20959E
:101F00003095E059FE4F3183208363E03695279565
:101F10006A95E1F73397A9014823592351834083F8
:101F20002115310559F043E0969587954A95E1F7DB
:101F300053E0369527955A95E1F7F2CFF801E1592C
:101F4000FE4F808386E0782E88248394912C7A94A7
:101F5000FFEF7F1609F454C0672D8F2D9E2D0E9430
:101F6000E005D8019F96CD90DC90D09729833A83E5
:101F70004B835C836D837E838F839887A72CB12CE2
:101F800071100BC0F601468550E0BE016F5F7F4FB8
:101F9000C60109960E94001A03C0F1E07F1208C032
:101FA000F501EE55FD4F6491D6011E962C9105C0AA
:101FB000F501EE55FD4F649121E0AE014F5F5F4F9B
:101FC000C6010E94FF03F501E456FD4F6491F6013E
:101FD0004781C6010E94DB0362E0C6010E9436040D
:101FE000F501EA56FD4FE491940101C0220FEA95F4
:101FF000EAF7482F422B62E0C6010E94DB03A7CF1D
:10200000D8019F968D919C91D0970E94EB042896C1
:102010000FB6F894DEBF0FBECDBFDF91CF911F91F9
:102020000F91FF90EF90DF90CF90BF90AF909F9077
:102030008F907F90089590E0FC01EE57FD4F349112
:10204000FC01E053FD4F2491FC01E454FD4FE49169
:10205000EE2309F43BC0332339F1333091F038F4E7
:102060003130A9F0323001F584B58F7D12C03730A0
:1020700091F03830A1F03430B9F4809180008F7D38
:1020800003C0809180008F77809380000DC084B55D
:102090008F7784BD09C08091B0008F7703C0809195
:1020A000B0008F7D8093B000F0E0EE0FFF1FE85589
:1020B000FD4FA591B4918FB7F894EC91611103C0D5
:1020C00020952E2301C02E2B2C938FBF0895833093
:1020D000910528F0880F991F04970197F1F708954B
:1020E0008F929F92AF92BF92CF92DF92EF92FF9228
:1020F0006B017C010E94470E4B015C01C114D104AD
:10210000E104F104F1F00E94470EDC01CB018819D3
:102110009909AA09BB09883E9340A105B10570F34E
:1021200021E0C21AD108E108F10888EE880E83E0A8
:10213000981EA11CB11CC114D104E104F10419F7CB
:10214000DDCFFF90EF90DF90CF90BF90AF909F904A
:102150008F9008952FB7F8946091E0037091E10398
:102160008091E2039091E3032FBF08958F929F9295
:10217000AF92BF92CF92DF92EF92FF92CF93DF9315
:10218000EC014A015B010E94AA106B017C0167E12E
:10219000CE010E94360484FD29C06FEFCE010E945B
:1021A000BC0384FFF4CF40E167E0CE010E94DB0373
:1021B00060E0CE010E94AA0461E0CE010E94AA0460
:1021C0000E94AA10DC01CB018C199D09AE09BF0940
:1021D00088159905AA05BB05D0F260E0CE010E94E2
:1021E000AA04CE010E94D80380E005C060E0CE01C1
:1021F0000E94AA0481E0DF91CF91FF90EF90DF90E1
:10220000CF90BF90AF909F908F9008951F920F92A4
:102210000FB60F9211242F933F938F939F93AF93F9
:10222000BF938091E0039091E103A091E203B0910C
:10223000E3033091DF0326E0230F2D3720F40296CD
:10224000A11DB11D05C029E8230F0396A11DB11DD5
:102250002093DF038093E0039093E103A093E203D4
:10226000B093E3038091E4039091E503A091E6032A
:10227000B091E7030196A11DB11D8093E4039093F3
:10228000E503A093E603B093E703BF91AF919F915D
:102290008F913F912F910F900FBE0F901F90189527
:1022A000CF93DF93CDB7DEB763970FB6F894DEBF59
:1022B0000FBECDBF789484B5826084BD84B5816043
:1022C00084BD85B5826085BD85B5816085BD809101
:1022D0006E00816080936E00109281008091810079
:1022E0008260809381008091810081608093810071
:1022F000809180008160809380008091B100846033
:102300008093B1008091B00081608093B000809193
:102310007A00846080937A0080917A008260809352
:102320007A0080917A008E7F80937A0080917A0083
:10233000806880937A001092C10082EB93E00E9443
:10234000310566E082EB93E00E943604887F482FD7
:10235000456066E082EB93E00E94DB0362E070E0A0
:1023600082EB93E00E94560488E00E946C0E60E0CD
:1023700088E00E941B106AE070E080E090E00E941C
:10238000701061E088E00E941B106AE070E080E05D
:1023900090E00E94701067E087ED93E00E94A90B27
:1023A00066E08BED93E00E94A90B2A9A229A239A69
:1023B000259A1092CE031092CF03ECE6F2E08591BD
:1023C0009491E82EEEE6F2E0F490EFE6F2E0E4918C
:1023D000E093D003E0E7F2E0E491E093D103E1E79A
:1023E000F2E0E491E093D2038C01802F8E198F15D7
:1023F00048F4F80164918AEC93E00E9470090F5F41
:102400001F4FF3CF1092D4038AEC93E00E948D0B00
:1024100081E890E09093D6038093D5038AEC93E013
:102420000E948D0B12E01093D3038AE391E00E9487
:10243000C60E82E491E00E94C60EE0919B01F091ED
:102440009C011083E0919701F09198011082E09136
:102450009901F0919A0188E080831092A301E091A4
:102460009F01F091A00186E08083E0919D01F091B1
:102470009E01808180618083E0919D01F0919E01A9
:10248000808188608083E0919D01F0919E01808130
:1024900080688083E0919D01F0919E0180818F7D15
:1024A000808310922A0260E070E08BE891E00E9445
:1024B0008B0E80912E0290912F020E943105809107
:1024C0002A02882339F084E299E0909329028093CC
:1024D00028020EC086E090E00E94041890932C021F
:1024E00080932B0210922D02109229021092280242
:1024F00081E680933B0241E665E080912E02909157
:102500002F020E94DB0360E070E080912E02909128
:102510002F020E945604809130029091310221E0F6
:10252000DC0199962C9320912A02222351F067E135
:1025300080912E0290912F020E94360480FF07C0E6
:1025400052C260912802709129020E94EE0E6AE444
:1025500071E08BE891E00E94000364E670E080E0A7
:1025600090E00E9470108BE891E00E94F901892BA5
:1025700071F38BE891E00E94D701813441F78AEC36
:1025800093E00E948D0B80E591E00E94C60E87E5E6
:1025900091E00E94C60E64EF71E080E090E00E943E
:1025A00070108AEC93E00E948D0B80E691E00E940F
:1025B000C60E76EC572E44244394E8E03E2EF6EF08
:1025C0008F2E99249A94AAE96A2E712C8091300258
:1025D000909131020E94CD0B409128025091290226
:1025E000443229E0520709F4DDC0833C11F44092E3
:1025F000320290912A029111D5C0982F9D7F943C70
:1026000009F0AEC0E0913002F09131027F0197E015
:10261000E90EF11C27813085328721872785843C8C
:1026200041F540912D0280912B0290912C0230E0D7
:10263000341789F08C010396BC0163507109DB01EA
:102640005C91521306C0D80111968D919C911297FE
:1026500004C03F5FEDCF8FEF9FEF9A83898308E33C
:1026600010E022E030E0AE014F5F5F4FB701CF01D5
:1026700074C030E03A8B298B2115310509F45DC017
:10268000452BC1F450912D0280912B0290912C0288
:1026900040E0451709F44EC0FC010396DC01129797
:1026A0006D917C916217730719F4808190E047C0A7
:1026B0004F5FEFCF1C821B8280910001909101013E
:1026C0009C012F5F3F4F30930101209300019E83B7
:1026D0008D835F8208E310E022E030E0AE014F5EC0
:1026E0005F4FBE016F5F7F4FCF010E94340D882383
:1026F00009F10E94AA105B016C0180913002909157
:1027000031020E94CD0B863C71F00E94AA10DC01C0
:10271000CB018A199B09AC09BD09853F9140A105F0
:10272000B10558F307C0E0913002F091310287857E
:10273000908905C08FEF9FEF02C080E090E09A8300
:10274000898308E310E022E030E0AE014F5F5F4F85
:10275000B70180913002909131020E94340D22C065
:10276000853C01F5A0913002B091310220912B02FD
:1027700030912C0280E090912D02891798F4F90194
:1027800093E0899FE00DF11D1124618172811796FC
:102790004D915C9118976417750711F4128211829C
:1027A0008F5FE9CF80913202882309F459C01092DB
:1027B0003202E0913002F09131023796DE0111963B
:1027C000832D01900D928A95E1F7F884FF2009F49A
:1027D00047C049815A814432A9E05A0791F09A01D1
:1027E00080E02115310539F063E0369527956A952B
:1027F000E1F78F5FF6CF182F110F180FBA0180E0A5
:1028000004C081E010E060E070E090E00496E090A9
:102810002D02D0902B02C0902C029C01012E02C0F0
:10282000220F331F0A94E2F7262B372B211531058F
:10283000A9F0ED2DFC2D00E00E1509F441C2A18197
:10284000B281A217B30719F4A081AF1107C0339664
:102850002432B9E03B0711F00F5FEECF0197E9F6A4
:10286000E0900F03F090100385E7E81682E0F80689
:1028700009F008F45EC0D0907B0200917D021091B7
:102880007E029DE4D91232C0A8010C30110510F06F
:102890004BE050E06FE772E082E091E00E94001AA6
:1028A000C401801B910B8E0D9F1D9093100380938C
:1028B0000F03A301401B510BB80161587D4F85E701
:1028C00092E00E94091A62E071E08BE891E00E94B8
:1028D00000038AEC93E00E948D0B8BE691E00E944E
:1028E000C60E82E091E00E94C60E23C09401201B18
:1028F000310BC701820F931F9093100380930F0336
:10290000A301401B510BB80161587D4F85E792E050
:102910000E94091A4D2D50E060E070E02AE08BE83B
:1029200091E00E94150366E771E08BE891E00E9458
:1029300000030E94AA105B016C019B01A60160E0EC
:1029400070E080E090E0A0908201B0908301C090A0
:102950008401D0908501E0908601F090870100917C
:102960008801109189010E94F517283833414105EB
:102970005105610571058105910591F18CF10E9468
:10298000AA108B019C016093820110938301209314
:102990008401309385011092860110928701109274
:1029A00088011092890100912D0210E080E090E0F2
:1029B0008017910714F40196FBCF8AEC93E00E94F4
:1029C0008D0B80E691E00E94C60E69E771E08AEC0B
:1029D00093E00E940003B8018AEC93E00E948B0E02
:1029E0000E949902F3CD80912E0290912F020E94B5
:1029F000B604E0913002F091310282A5826082A794
:102A00006AE070E080E090E00E94701064E279E09B
:102A100080913002909131020E94EE0E84E299E0A2
:102A200090932902809328020E94AA102B013C0156
:102A3000C12CE12C90E4292E312C3C862B868091F0
:102A40000001909101019C012F5F3F4F30930101E4
:102A5000209300019E878D87F2ECFF8780913002E2
:102A600090913102DC01D2962D913C91D3973A8717
:102A70002987EE2089F02E2D30E021503109A9015F
:102A8000440F551F240F351F01E010E002C0000F56
:102A9000111F2A95E2F702C000E010E020E030E0CC
:102AA00040E050E0BE01675F7F4F0E94340D0E94FE
:102AB000AA104B015C01F12C8091300290913102FF
:102AC0000E94CD0B823C89F4FE013196EF0DF11D81
:102AD000EF0DF11DA0913002B091310217968D914A
:102AE0009C91189791838083F3940E94AA10DC0133
:102AF000CB0188199909AA09BB09C897A105B10595
:102B000020F4B3E0BF15C0F633C0F11031C00E940D
:102B1000AA10DC01CB0184199509A609B7098136F1
:102B20009A4EA105B10508F012CD2C2D30E02F5F93
:102B30003F4F8E2D90E00196289FB001299F700D88
:102B4000389F700D1124675E7F4F660F771F072E29
:102B5000000C880B990B0E94701081E08E0D837021
:102B6000E82E81E08C0D6AE00E94B317C92E65CF74
:102B7000D12C1B8ADF1408F03FC0E3ECEF87809173
:102B80002A02888BFE013196ED0DF11DED0DF11D30
:102B9000008111811C870B8720E030E040E050E08D
:102BA000BE01675F7F4F80913002909131020E9499
:102BB000340D0E94AA104B015C010E94AA10DC0196
:102BC000CB0188199909AA09BB09813E9105A10584
:102BD000B10550F480913002909131020E94CD0BEA
:102BE0008B8B803851F7DF2C65E070E080E090E05F
:102BF0000E947010D394BECFFB89F03809F087CFC4
:102C0000E0913002F091310287859089009709F4B4
:102C10007ECF368520912A02321379CF90932902F4
:102C20008093280280912E0290912F020E94B60478
:102C30006AE070E080E090E00E94701060912802ED
:102C40007091290280913002909131020E94EE0E23
:102C50001C861B86B1E8BF8787E0F82E08E310E0EA
:102C600020E030E040E050E0BE01675F7F4F8091A0
:102C70003002909131020E94340D811119C0FA94F2
:102C8000F1100FC064E279E080913002909131023E
:102C90000E94EE0E84E299E090932902809328022C
:102CA00036CF63E070E080E090E00E947010D6CFF5
:102CB000E0913002F091310282A58D7F82A747CC4E
:102CC0003A87298780E88F835C834B83443259405D
:102CD000C9F062E070E080E090E00E94701008E3CC
:102CE00010E022E030E0AE01475F5F4FBE016F5F52
:102CF0007F4F80913002909131020E94340D8111FA
:102D000017C008C062E070E080E090E00E947010A0
:102D10000B811C8122E030E0AE01475F5F4FBE01B6
:102D20006F5F7F4F80913002909131020E94340D8D
:102D30000E94AA105B016C0189859A8590933F02DD
:102D400080933E028F2D90E090933D0280933C0251
:102D500080913002909131020E94CD0B8138B1F008
:102D60000E94AA10AB01BC014A195B096C097D09DC
:102D7000E0913002F091310285819681A0E0B0E0CF
:102D800084179507A607B70718F76ACDA985BA85EE
:102D900060912D0280912B0290912C02AC0120E0D9
:102DA000261751F04D5F5F4FFA01339730813F1581
:102DB00011F02F5FF5CF622FFC0123E0629FE00D41
:102DC000F11D1124F082B283A18320912D026213A0
:102DD00047CD6F5F60932D0270E06F5F7F4F9B0167
:102DE000220F331F620F731F0E94311990932C0220
:102DF00080932B0235CDCF93DF93EBE8F1E0138284
:102E0000128288EE93E0A0E0B0E084839583A683ED
:102E1000B7838EE191E09183808385EC90E0958784
:102E2000848784EC90E09787868780EC90E0918B94
:102E3000808B81EC90E0938B828B82EC90E0958B81
:102E4000848B86EC90E0978B868B118E128E138E7E
:102E5000148EEAECF3E01382128281E081871486FB
:102E6000138680E391E091838083E2EBF3E08AE0D4
:102E700090E09183808385E090E093838283168243
:102E800080E28783108685E0868785E090E0A0E079
:102E9000B0E0848B958BA68BB78B1186A0E4B2E053
:102EA000D096FC93EE939F9785E792E09093100362
:102EB00080930F038DE193E090931C0380931B0399
:102EC00081E193E098969C938E9397979B961D92A1
:102ED0001D921D921C929E979A961C929A97999673
:102EE0001C9299971C92C8E2D2E0FF83EE83B987C7
:102EF000A887DF91CF9108952F923F924F925F92D2
:102F00006F927F928F929F92AF92BF92CF92DF92F9
:102F1000EF92FF920F931F93CF93DF93CDB7DEB75E
:102F2000CA1BDB0B0FB6F894DEBF0FBECDBF0994F2
:102F30002A88398848885F846E847D848C849B8449
:102F4000AA84B984C884DF80EE80FD800C811B8157
:102F5000AA81B981CE0FD11D0FB6F894DEBF0FBE86
:102F6000CDBFED010895991B79E004C0991F961714
:102F700008F0961B881F7A95C9F780950895AA1BBB
:102F8000BB1B51E107C0AA1FBB1FA617B70710F054
:102F9000A61BB70B881F991F5A95A9F78095909586
:102FA000BC01CD010895A1E21A2EAA1BBB1BFD0195
:102FB0000DC0AA1FBB1FEE1FFF1FA217B307E40718
:102FC000F50720F0A21BB30BE40BF50B661F771F70
:102FD000881F991F1A9469F7609570958095909550
:102FE0009B01AC01BD01CF0108952A193B094C0991
:102FF0005D096E097F09800B910B0895EE0FFF1F8D
:103000000590F491E02D0994CF93DF9382309105E0
:1030100010F482E090E0E091EA03F091EB0320E00D
:1030200030E0C0E0D0E0309711F140815181481785
:103030005907C0F04817590761F48281938120979E
:1030400019F09B838A832BC09093EB038093EA0350
:1030500026C02115310519F04217530718F49A01BB
:10306000BE01DF01EF010280F381E02DDCCF2115ED
:10307000310509F1281B390B2430310590F41296E3
:103080008D919C9113976115710521F0FB0193833C
:10309000828304C09093EB038093EA03FD01329690
:1030A00044C0FD01E20FF31F819391932250310937
:1030B0002D933C933AC02091E8033091E903232BF0
:1030C00041F420910F01309110013093E9032093D6
:1030D000E80320910D0130910E012115310541F4D5
:1030E0002DB73EB74091110150911201241B350BB1
:1030F000E091E803F091E903E217F307A0F42E1B37
:103100003F0B2817390778F0AC014E5F5F4F24174B
:10311000350748F04E0F5F1F5093E9034093E803D3
:103120008193919302C0E0E0F0E0CF01DF91CF9175
:1031300008950F931F93CF93DF93009709F48CC0EA
:10314000FC013297138212820091EA031091EB0383
:103150000115110581F420813181820F931F209187
:10316000E8033091E9032817390779F5F093E9036B
:10317000E093E80371C0D80140E050E0AE17BF070C
:1031800050F412962D913C911397AD012115310504
:1031900009F1D901F3CF9D01DA01338322836081E4
:1031A0007181860F971F8217930769F4EC012881BC
:1031B0003981260F371F2E5F3F4F318320838A814D
:1031C0009B8193838283452B29F4F093EB03E09357
:1031D000EA0342C01396FC93EE931297ED014991D6
:1031E00059919E01240F351FE217F30771F4808176
:1031F0009181840F951F029611969C938E938281E4
:10320000938113969C938E931297E0E0F0E0D8019F
:1032100012968D919C911397009719F0F8018C01EB
:10322000F6CF8D919C9198012E5F3F4F820F931F97
:103230002091E8033091E9032817390769F43097A2
:1032400029F41092EB031092EA0302C01382128257
:103250001093E9030093E803DF91CF911F910F9141
:103260000895A0E0B0E0E7E3F9E10C948017EC01E9
:10327000009721F4CB010E940418B8C0FC01E60FAE
:10328000F71F9C0122503109E217F30708F4ACC084
:10329000D9010D911C91119706171707B0F0053051
:1032A000110508F49FC0C80104978617970708F412
:1032B00099C002501109061B170B019311936D93CE
:1032C0007C93CF010E9499188DC05B01A01AB10AAE
:1032D0004C01800E911EA091EA03B091EB0340E0F7
:1032E00050E0E12CF12C109709F44AC0A815B9055B
:1032F000D1F56D907C901197630182E0C80ED11CCE
:10330000CA14DB0480F1A3014A195B096A0182E057
:10331000C80ED11C1296BC9012971396AC91B5E0D2
:10332000CB16D10440F0B282A38351834083D901EC
:103330006D937C930AC00E5F1F4FC301800F911FD6
:10334000F90191838083EB2DFA2FE114F10431F020
:10335000D7011396FC93EE93129744C0F093EB03BE
:10336000E093EA033FC08D919C911197481759074C
:1033700008F4AC017D0112960D90BC91A02DB3CF45
:103380008091E8039091E90388159905E1F44617C7
:103390005707C8F480910D0190910E01009741F4F8
:1033A0008DB79EB74091110150911201841B950B6E
:1033B000E817F907C8F4F093E903E093E803F9018B
:1033C000718360830FC0CB010E9404187C010097B9
:1033D00059F0A801BE010E94001ACE010E9499185E
:1033E000C70104C0CE0102C080E090E0CDB7DEB7D7
:1033F000EEE00C949C1781E090E0F8940C941B1A7A
:10340000FB01DC0102C001900D9241505040D8F701
:1034100008956817790768F4FB01DC01E40FF51FD4
:10342000A40FB51F02C002900E9241505040D8F731
:0A34300008950C94001AF894FFCFE1
:10343A0001003030302D30302E30300A000000ECE0
:10344A00038000C33C33CE3EE3EC000000003002B0
:10345A009D01C8017702F901D701EB0100000000C4
:10346A00ED099D01D007CF071D0E53796E63696E72
:10347A006700776974682050430053796E630A00C5
:10348A0053796E636564007769746820504321003C
:10349A002A2A4D61737465722A2A00526563656926
:1034AA007665643A20000D0A004E6F6465733A200F
:0234BA00000010
:00000001FF
