:100000000C9416020C943E020C943E020C943E0298
:100010000C943E020C943E020C94B3060C943E02E7
:100020000C943E020C943E020C943E020C943E0250
:100030000C943E020C943E020C943E020C943E0240
:100040000C94BC160C943E020C94A8110C948211D2
:100050000C943E020C943E020C943E020C943E0220
:100060000C943E020C943E0200407A10F35A00A019
:10007000724E18090010A5D4E80000E87648170071
:1000800000E40B54020000CA9A3B000000E1F505B1
:10009000000080969800000040420F000000A086FB
:1000A00001000000102700000000E803000000002D
:1000B0006400000000000A000000000001000000D1
:1000C00000002C76D888DC674F0823DFC1DFAE59EB
:1000D000E1B1B796E5E3E453C63AE651997696E87E
:1000E000E6C28426EB898C9B62ED407C6FFCEFBC02
:1000F0009C9F40F2BAA56FA5F490055A2AF75C932D
:100100006B6CF9676DC11BFCE0E40D47FEF520E662
:10011000B500D0ED902E0300943577050080841E45
:10012000080000204E0A000000C80C333333330FA0
:10013000986E12831141EF8D2114893BE65516CF3D
:10014000FEE6DB18D1844B381BF77C1D901DA4BB49
:10015000E424203284725E228100C9F124ECA1E5FE
:100160003D2700030C0F30333C3FC0C3CCCFF0F32E
:10017000FCFFAED580A83FD300408D142002A1C85B
:10018000DA12817FD9F1DB40A4A6AF5374616E64AB
:10019000696E672062792E2E2E0053746172746529
:1001A00064005374617274696E672E2E000000053E
:1001B000072061000000000000005F000000070051
:1001C0000700147F147F14242A7F2A122313086443
:1001D0006236495522500005030000001C224100F0
:1001E0000041221C00082A1C2A0808083E080800B2
:1001F0005030000008080808080060600000201067
:100200000804023E5149453E00427F400042615190
:1002100049462141454B311814127F102745454569
:10022000393C4A4949300171090503364949493683
:10023000064949291E0036360000005636000000E7
:100240000814224114141414144122140800020149
:10025000510906324979413E7E1111117E7F49498B
:1002600049363E414141227F4141221C7F49494953
:10027000417F090901013E414151327F0808087F51
:1002800000417F41002040413F017F081422417F0F
:10029000404040407F0204027F7F0408107F3E41BF
:1002A00041413E7F090909063E4151215E7F0919FE
:1002B0002946464949493101017F01013F404040FB
:1002C0003F1F2040201F7F2018207F6314081463E5
:1002D0000304780403615149454300007F41410212
:1002E0000408102041417F00000402010204404044
:1002F000404040000102040020545454787F484498
:1003000044383844444420384444487F3854545492
:1003100018087E090102081454543C7F080404782C
:1003200000447D40002040443D00007F10284400F0
:10033000417F40007C041804787C08040478384429
:100340004444387C14141408081414187C7C0804E1
:1003500004084854545420043F4440203C4040206A
:100360007C1C2040201C3C4030403C442810284449
:100370000C5050503C4464544C440008364100003A
:10038000007F0000004136080008082A1C08081CED
:100390002A080800060909067201198040000001B8
:1003A000020304051112131415160A0B0C0D0E0F7F
:1003B00000000000230026002900040404040404B3
:1003C0000404020202020202030303030303010204
:1003D00004081020408001020408102001020408D3
:1003E0001020005EBCE2613FDD83C29C7E20A3FD45
:1003F0001F41009D23BE46DB65F88C11AF32CA5702
:10040000E97400000000240027002A00000000001A
:10041000250028002B000000000800020100000356
:10042000040700000000000000001F1C11241FBE74
:10043000CFEFD8E0DEBFCDBF24E0A0EAB1E001C03D
:100440001D92AA32B207E1F711E0A0E0B1E0EAEFB5
:10045000F5E402C005900D92A03AB107D9F712E079
:10046000C6E1D2E004C02197FE010E94A821C53157
:10047000D107C9F70E9406170C94FB220C940000C8
:10048000CF93DF93DC01FB01EC01C359DE4F6881A0
:10049000798122969881828140815181823028F031
:1004A000BA0181E0838390E027C0ED01C059DE4F9F
:1004B00028813981EA01C223D323D2960D90BC91C1
:1004C000A02DCA17DB07C1F4C9018095909563E0A0
:1004D000880F991F6A95E1F784239523892B51F0A2
:1004E00083E0220F331F8A95E1F72760BA01622368
:1004F000732301C0BA0195E071836083928381E028
:10050000DF91CF910895CF93DF93EC019C818E8191
:10051000981758F4E881F9810084F185E02D42E0D4
:10052000CE0109958C818F5F8C83DF91CF910895E7
:10053000089580E090E008958F929F92AF92BF92CD
:10054000CF92DF92EF92FF920F931F93CF93DF939F
:10055000EC017B01CCA8D12C860108501109DB01EC
:1005600016969C918CE6890F833020F0983C09F018
:10057000CFC003C0943909F4E4C08BE6890F823000
:1005800018F0983C09F08EC06E0159EDC50ED11CD3
:10059000D6012D913C91A801420F531F41395105BD
:1005A00020F0C852DF4F1882B1C05E01B8EDAB0E2B
:1005B000B11CF5018081882309F415C1963929F011
:1005C000D70117969C919813A1C0FE01EB52FF4FE3
:1005D00040815181F701848195814817590709F0BD
:1005E00095C04E01FBED8F0E911CD4018D919C9115
:1005F000A801BE01615F7F4F820F931F0E94E0221E
:10060000F60180819181080F191F11830083D701A2
:1006100016968C91863929F0F5018081815080836E
:1006200073C0D5011C92F7018781FE01E952FF4F8B
:100630008083833809F483C07E01FFECEF0EF11C48
:10064000F701A081B181CE018A1B9B0B8B539F4F79
:1006500080179107F8F032968AE001900D928A9502
:10066000E1F7D7018D919C91F40160817181D601F0
:100670004D915C910A960E94E022F6018081918161
:100680000A96D7012D913C911197820F931F8D935C
:100690009C933AC08FA598A90E94D5138AA5816022
:1006A0008AA734C07E01BFECEB0EF11CF701A081DC
:1006B000B181CE01C5969D01281B390BC901800F60
:1006C000911F8B39910510F5E85CF10988E00190E4
:1006D0000D928A95E1F7D701ED91FC911197118761
:1006E00000878D919C91BE01615F7F4FA8010A96A2
:1006F0000E94E022B2E0CB0ED11CF70180819181F3
:10070000C80ED91ED182C08281E06DC080E06BC06E
:10071000933841F6DE01AF52BF4FFE01379688E0B5
:1007200001900D928A95E1F7FE01E552FF4FCE014F
:100730000F9691838083C752DF4F1983088382E02D
:1007400052C0F7018781873008F02BCFFE01EB52B2
:10075000FF4F40815181D70114962D913C911597FF
:1007600034976F014217530739F4408151812D911D
:100770003C914217530741F2F8E18F9FC0011124C9
:10078000FE01E153FF4F20813181AE01421B530B2B
:100790009A012B533F4F281739073CF48AA58160F3
:1007A0008AA78FA598A90E94D513FE01379688E0E5
:1007B000D60101900D928A95E1F7FE01E552FF4FB7
:1007C000BE01615F7F4FA801808191810E94E0227C
:1007D000FE01E752FF4F11830083C852DF4F88812B
:1007E0008150888391CFDF91CF911F910F91FF901E
:1007F000EF90DF90CF90BF90AF909F908F90089533
:10080000FC0120813181828193812817390719F0F9
:10081000822F0C94E5150895CF93DF93EC019CB5DE
:100820009F7D9CBD9CB5937F9CBD9CB59C7F9CBDD2
:100830009DB591609DBD8A810E94E5158C899D8939
:10084000DF91CF910C946D1660E00C940C04CF9363
:10085000DF93CDB7DEB728970FB6F894DEBF0FBE93
:10086000CDBFAC019CEC99839A839B839C839D8331
:100870001E821F8218869A01E1E021153105C9F018
:10088000611103C04115510569F4D901A770BB2757
:10089000AB5EBE4F8C91A1E0B0E0AC0FBD1FAE0FC0
:1008A000B11D8C9383E0369527958A95E1F7EF5F2C
:1008B000E4CF611102C0452B39F4E62FF0E0EB5E86
:1008C000FE4F8081898305C0F0E0EC5EFE4F8081A1
:1008D0008A8329813A814B815C816D817E818F8100
:1008E000988528960FB6F894DEBF0FBECDBFDF9176
:1008F000CF910895DC01ED91FC910084F185E02D0C
:1009000040E009940F931F93CF938C01FC01648303
:100910009085C62FC90F6C2F6F70C8010E947A0492
:100920006C2F62956F706061C801CF911F910F911C
:100930000C947A040F931F93CF93DF931F92CDB73C
:10094000DEB78C01FC018681681728F4C801498351
:100950000E9482044981F801878186958695869553
:10096000481758F44583642F606BC8010F90DF91DE
:10097000CF911F910F910C947A040F90DF91CF913A
:100980001F910F910895CF92DF92EF92FF920F93F4
:100990001F93CF93DF93EC01F62EC42ED22E8F81BE
:1009A000869586958695081710F00FEF080F1D2D78
:1009B000011780F0412F6F2DCE010E949A04EF2C79
:1009C000CE1430F060E0CE010E948302E394F8CFB1
:1009D0001F5FEECF4D2D6F2DCE01DF91CF911F9177
:1009E0000F91FF90EF90DF90CF900C949A042F928C
:1009F0003F924F925F926F927F928F929F92AF92AF
:100A0000BF92CF92DF92EF92FF920F931F93CF93FB
:100A1000DF93CDB7DEB727970FB6F894DEBF0FBED2
:100A2000CDBFDC011B960D911C911C970115110582
:100A300009F462C19F838E83F801B4913196449189
:100A4000319654903196A491EA2EF12CF7E0EF0EF6
:100A5000F11C23E0F594E7942A95E1F7EB82F80185
:100A6000349674913196E491671758F0862F90E090
:100A70002E2F30E0F901E70FF11D8E179F070CF4C0
:100A800073C06D3069F4AE81BF8116968C91882356
:100A900009F467C060E08E819F810E94820461C07A
:100AA0006A3009F029C1EE81FF8181856581D62EEA
:100AB0008E9DD00C11248781869586958695D816B3
:100AC00030F08285882319F082E08287D12C4D2D69
:100AD00060E08E819F810E949A04AE81BF811A9648
:100AE0008C911A97823008F43CC015962C9115977A
:100AF0001B96ED91FC911C97309741F03396E49151
:100B000019960C91E09FE02D112401C0E0E08FEFD9
:100B1000820F0E2F10E0095F1F4F93E01595079588
:100B20009A95E1F7080FEE81FF814681415064817B
:100B3000CF010E94C304AE81BF8119968C91199791
:100B40006D2D8E9D600D1124660F660F660F179632
:100B50008C91861708F460E060648E819F810E940A
:100B60007A0481E090E0CAC050E05B2BC801069691
:100B7000671BEE81FF81F185F9834230510588F4CE
:100B8000452B09F019825E9C90015F9C300D112469
:100B9000629F8001639F100D1124080F191F412CC3
:100BA00024C0EA2FE77021F048E0442E4E1A01C01D
:100BB000412CA82FFC0140E050E07E2F7A1B7617D5
:100BC00028F47491470F511D3196F7CFFC01E60FC1
:100BD000F11D54904E9D80014F9D100D5E9D100D96
:100BE0001124020F131F080F191FAE81BF81149625
:100BF000BC91BC83EE81FF813580652C712CCC24A7
:100C0000C394D12C812C912C7FEF7C0D7A838B8126
:100C1000781708F05FC0212CAE81BF8119968C91A6
:100C2000281608F051C07A81711102C0222051F0BB
:100C3000AE81BF8115964C9115974F5F6C81CD01A8
:100C40000E949A04A12CB12CA51488F5F501E80D99
:100C5000F91DE00FF11F2491442061F0CE14DF0450
:100C600049F4E22FF0E0042C02C0F595E7950A94D0
:100C7000E2F72E2FEE81FF818185823079F4E22F19
:100C80002110E295EF70F0E0EE59FE4F2491622FB3
:100C90008E819F812D830E9483022D81622F8E8100
:100CA0009F810E948302FFEFAF1ABF0ACDCFB12C04
:100CB0007981B71639F060E08E819F810E948302AE
:100CC000B394F6CF2394A8CF860C971CBFEFCB1A12
:100CD000DB0A9ACFAE81BF8117968C9117978695C4
:100CE00086958695381608F03CCF15963C92159758
:100CF000632D606BCD0133CF80E090E027960FB677
:100D0000F894DEBF0FBECDBFDF91CF911F910F9141
:100D1000FF90EF90DF90CF90BF90AF909F908F901B
:100D20007F906F905F904F903F902F9008950F931A
:100D3000CF93DF93EC010F81069506950695015040
:100D40004E81415020E060E00E94C30481E09A851A
:100D5000911101C080E08A8760E4CE01DF91CF91DC
:100D60000F910C947A041F920F920FB60F921124D8
:100D70008F9381E08093A0018F910F900FBE0F9011
:100D80001F901895DC01862F262F30E0F901E654DC
:100D9000FC4FE491F0E0EE0FFF1FE45FFB4F459145
:100DA000549113965C934E931297F901E253FC4FC2
:100DB000E491EC93E0951196EC9361E00C9431167C
:100DC0008EBD00000DB407FEFDCF8EB508956F9265
:100DD0007F928F929F92AF92BF92CF92DF92EF92CB
:100DE000FF920F931F93CF93DF93CDB7DEB7289772
:100DF0000FB6F894DEBF0FBECDBF8C01CB01D22E53
:100E0000642F0E94270439014A015B017C01F8012B
:100E100082A582FD04C087A590A90E94D513F80180
:100E200087A590A9DD2011F060E001C061E00E947B
:100E3000210BF801C7A4D0A869827A828B829C8298
:100E4000AD82BE82EF82F886F6012685AE014F5F45
:100E50005F4F6AE0C6010E942A13F6012685AE01A3
:100E60004F5F5F4F60E1C6010E942A13F601478180
:100E700061E1C6010E940613F801B4A8C7A4D0A876
:100E80006FEFC6010E94E71280FF0DC06FEFC60131
:100E90000E94E71284FFF4CF40E167E0C6010E94A0
:100EA0000613F12C30C0F601F780EF2CBF1408F4C4
:100EB000EB2CF6018085811102C0FE1801C0F12CD7
:100EC000C6010E94240480EA0E94E0065801F7E06F
:100ED000AF0EB11CEA0CEA1431F0F50181915F010B
:100EE0000E94E006F8CFFF2029F080E00E94E00693
:100EF000FA94F9CFC6010E94E41261E0C6010E9493
:100F00000004FF24F394F80182A582FD0FC0418103
:100F100052816381748187A590A90E94630CF82E89
:100F200060E0F80187A590A90E94210B8F2D2896DB
:100F30000FB6F894DEBF0FBECDBFDF91CF911F91EA
:100F40000F91FF90EF90DF90CF90BF90AF909F9068
:100F50008F907F906F9008953F924F925F926F9223
:100F60007F928F929F92AF92BF92CF92DF92EF9239
:100F7000FF920F931F93CF93DF93EC019AA5892FD4
:100F8000827091FD17C0FE01E153FF4FAE014B5C33
:100F90005F4F90FD07C020813181241B350B29371D
:100FA000310544F0208131814217530708F429C1EB
:100FB0009E7F9AA78E01095F1F4F502EEE24E39467
:100FC000F12C6E0181E9C81A8EEFD80A74E2A72EBF
:100FD00079E0B72E8FA498A8F401808191818F3F8A
:100FE000910511F480E00DC1F401828193818F3F5E
:100FF0009105C1F367E1C4010E946113982F9170BC
:10100000792E80FDEFCF6FEFC4010E94E7128FA40D
:1010100098A8C4010E94240480E60E94E0068FEF95
:101020000E94E006682EC4010E94E412F0E2F61568
:1010300008F056C062EEC4010E94E71262E070E060
:1010400080E090E00E9476167CAA97E0971538F031
:101050006AE070E080E090E00E947616BBCF8FA43B
:1010600098A8F4018781472C871508F4482EF401CD
:101070009085911103C0382E341801C0312CC40161
:101080000E94240481E60E94E0063801450C4614C3
:1010900039F08FEF0E94E006F30181933F01F7CF13
:1010A000732C772029F08FEF0E94E0067A94F9CF15
:1010B000C4010E94E41240E767E0C4010E940613E5
:1010C00069857A85CB01009769F0282F2770263033
:1010D00008F080CF53E0969587955A95E1F7F3CFC6
:1010E000762CB2CF8D852AA93BA962177307E1F54B
:1010F000823809F46FCF803881F464327940D1F0BE
:10110000BA86A98642E064E279E0CE010E94130922
:101110006AE070E080E090E040C0833C59F46115E3
:10112000710541F078876F831A86198640E060E088
:1011300070E063C099A5992319F087FF0CC002C025
:10114000813C49F49CE6980F933028F0883C19F0D4
:10115000833809F056C0B801CE010E949C0282304B
:1011600009F038CF83E84DC06034710509F044C000
:10117000823CC9F48AA583FD2DCF243289E038074B
:1011800009F428CF8F8198859A87898738872F839C
:10119000F601608170E080E090E00E94761669853B
:1011A0007A8542E02AC0B801CE010E949C02982EA6
:1011B00088818823E9F029A9222379F030E02150A1
:1011C0003109C901880F991F280F391FB70102C0C3
:1011D000660F771F2A95E2F702C060E070E083E0B7
:1011E000660F771F8A95E1F744E0CE010E9413094C
:1011F000F2E09F12EFCEB6CF41E0CE010E9413097C
:10120000E9CEDF91CF911F910F91FF90EF90DF908A
:10121000CF90BF90AF909F908F907F906F905F9096
:101220004F903F900895CF92DF92EF92FF920F93ED
:101230001F93CF93DF9300D000D0CDB7DEB7FC0172
:1012400095859B012115310561F0822F87708630CD
:1012500030F483E0369527958A95E1F7F3CF80E067
:1012600097C09154EE24E3949F3708F0E12CF42EBC
:101270006B018F0119821A821B821C827A83698317
:101280004B83BE016F5F7F4FCF010E944002698197
:101290007A812C814B81C8010E94E706F1E0FF12A0
:1012A00027C0811102C0F12C6AC089819A818C15F6
:1012B0009D0501F5EE20F1F081ECF801858787812D
:1012C0009085928781879A838983FB821C82BE01E5
:1012D0006F5F7F4FC8010E94400288E0F80184AB35
:1012E00069817A812C814B81C8010E94E70602C086
:1012F0008823C9F289819A818C159D0519F4FF24F0
:10130000F3943DC0FF2019F0F3E0FF12F8CFEE2078
:10131000B1F3F80182A582FF11C04181528163813E
:10132000748187A590A90E94630CF80182A58B7F28
:1013300082A760E087A590A90E94210BF80187A5EC
:1013400090A90E940A140E94B0166B017C01C8018A
:101350000E94AC07813C99F20E94B016AB01BC011F
:101360004C195D096E097F09F80185819681A0E01D
:10137000B0E084179507A607B70748F794CFF801A0
:1013800082A582FD04C087A590A90E940A148F2D12
:101390000F900F900F900F90DF91CF911F910F91B1
:1013A000FF90EF90DF90CF900895EF92FF920F9310
:1013B0001F93CF93DF93EC017B01BA018AA99BA90C
:1013C000F70191838083DE01179688E001900D92EA
:1013D0008A95E1F72115310529F0A901CE010F9673
:1013E0000E94E022F701628173810833110561F0E8
:1013F0006034710511F444E001C043E060177107E7
:1014000009F442E0B80101C040E0CE01DF91CF9184
:101410001F910F91FF90EF900C9413092F923F9220
:101420004F925F926F927F928F929F92AF92BF92F4
:10143000CF92DF92EF92FF920F931F93CF93DF93A0
:10144000EC017B015A01690148010E94B0164BA4CE
:101450005CA46DA47EA4DC01CB0184199509A609C6
:10146000B7094997A105B10528F4CE010E94AC0740
:1014700087FFEBCF8CE891E00197F1F789E1C8167F
:10148000D104B0F488E08C0D8CAB84019601A501E9
:10149000B701CE010E94D509182F882311F011E061
:1014A00092C00E94B0166BA77CA78DA79EA78BC089
:1014B000E1E9CE16D10408F085C0C60168E170E00C
:1014C0000E945E2121E0892B09F420E0C60168E139
:1014D00070E00E945E21722E760EF7018281938168
:1014E0008034910539F08AA584608AA78FA598A9D0
:1014F0000E94D513F7014680512C612C84E9282ED7
:1015000096E9392EF7017782F1E07F1204C0F701E6
:101510003682478208C0611003C0F701268203C0EB
:1015200085E9F7018683E8E16E9EA001112496010A
:10153000241B350B2931310510F028E130E088E01B
:10154000820F8CAB4A0D5B1D8401B701CE010E9456
:10155000D509182F81110BC062E070E080E090E0A7
:101560000E9476165394F2E0F51560F606C07A9460
:101570006394772011F0512CC5CFF70146828AA5DC
:1015800082FF12C049815A816B817C818FA598A905
:101590000E94630C182F8FA598A90E940A1460E07E
:1015A0008FA598A90E94210B8AA58B7F8AA711235A
:1015B00049F0772009F473CF0E94B0166BA77CA77F
:1015C0008DA79EA710E0812FDF91CF911F910F91E2
:1015D000FF90EF90DF90CF90BF90AF909F908F9053
:1015E0007F906F905F904F903F902F900895CF9392
:1015F000DF93EC01862FF894EB89FC89208144234A
:1016000019F09989922B02C09A8992239083789439
:1016100090E59CBD91E09DBDF894EF85F88920810F
:101620009E859223908378940E94E006F894EF853B
:10163000F88990818D85892B80837894DF91CF9173
:1016400008951F93CF93DF93EC01162F61E00E9462
:101650006113482F112311F0416001C04E7F61E0FA
:10166000CE01DF91CF911F910C9406137F928F9240
:101670009F92AF92BF92CF92DF92EF92FF920F9321
:101680001F93CF93DF93CDB7DEB728970FB6F894AB
:10169000DEBF0FBECDBFFC019B012115310559F006
:1016A000822F8770863008F0FAC0A3E03695279520
:1016B000AA95E1F7F2CF62AB73AB87A590A9DC01E5
:1016C0002D913C912F3F310509F4E9C0DC011296C0
:1016D0002D913C9113972F3F310509F4E0C0E72E7F
:1016E000F62E8F0160E00E94210BF801C7A4D0A85C
:1016F0006DE1C6010E946113482F44606DE1C6018F
:101700000E9406136CE1C6010E946113482F4F63CB
:101710006CE1C6010E94061381E0D60118968C93F5
:10172000F80182A993A966E070E00E945E21482F2B
:10173000440F4B5FF0E14F9FA0011124456064E02E
:10174000D8019F968D919C91D0970E94061389E1B4
:1017500090E0A0E0B0E0F80181839283A383B4839A
:101760008BE490E09683858382A993A940E02FEFD4
:101770003FEFB90168237923672B39F073E0220F1B
:10178000331F7A95E1F74F5FF4CFF80141AB209515
:101790003095E059FE4F3183208363E036952795DD
:1017A0006A95E1F73397A901482359235183408370
:1017B0002115310559F043E0969587954A95E1F753
:1017C00053E0369527955A95E1F7F2CFF801E159A4
:1017D000FE4F808386E0782E88248394912C7A941F
:1017E000FFEF7F1609F454C0672D8F2D9E2D0E94A8
:1017F0002704D8019F96CD90DC90D09729833A8317
:101800004B835C836D837E838F839887A72CB12C59
:1018100071100BC0F601468550E0BE016F5F7F4F2F
:10182000C60109960E94E02203C0F1E07F1208C0C1
:10183000F501E655FC4F6491D6011E962C9105C02A
:10184000F501E655FC4F649121E0AE014F5F5F4F1B
:10185000C6010E942A13F501EC55FC4F6491F60174
:101860004781C6010E94061362E0C6010E9461130F
:10187000F501E256FC4FE491940101C0220FEA9574
:10188000EAF7482F422B62E0C6010E940613A7CF59
:10189000D8019F968D919C91D0970E940A1428960A
:1018A0000FB6F894DEBF0FBECDBFDF91CF911F9171
:1018B0000F91FF90EF90DF90CF90BF90AF909F90EF
:1018C0008F907F9008958F929F92AF92BF92CF9208
:1018D000DF92EF92FF92CF93DF93EC014A015B011D
:1018E0000E94B0166B017C0167E1CE010E9461137A
:1018F00084FD29C06FEFCE010E94E71284FFF4CF70
:1019000040E167E0CE010E94061360E0CE010E9434
:10191000000461E0CE010E9400040E94B016DC01C8
:10192000CB018C199D09AE09BF0988159905AA0537
:10193000BB05D0F260E0CE010E940004CE010E94FF
:10194000031380E005C060E0CE010E94000481E046
:10195000DF91CF91FF90EF90DF90CF90BF90AF904D
:101960009F908F9008952F923F924F925F926F9227
:101970007F928F929F92AF92BF92CF92DF92EF921F
:10198000FF920F931F93CF93DF93CDB7DEB761978D
:101990000FB6F894DEBF0FBECDBF67E1809149025C
:1019A00090914A020E94611380FD03C080E090E0A4
:1019B0006EC18091490290914A020E94D513E09134
:1019C0004B02F0914C0282A5826082A76AE070E02F
:1019D00080E090E00E94761664E279E080914B020C
:1019E00090914C020E94360B84E299E0909344025D
:1019F000809343020E94B0162B013C01C12CE12CC4
:101A000090E4292E312C3C862B8680910D019091FB
:101A10000E019C012F5F3F4F30930E0120930D016B
:101A20009E878D8782EC8F8780914B0290914C022C
:101A3000FC0122A933A93A872987EE2089F02E2DAF
:101A400030E021503109A901440F551F240F351FE3
:101A500001E010E002C0000F111F2A95E2F702C05A
:101A600000E010E020E030E040E050E0BE01675FC1
:101A70007F4F0E940E0A0E94B0164B015C01F12CB0
:101A800080914B0290914C020E94AC07823C89F4F9
:101A9000FE013196EF0DF11DEF0DF11DA0914B02EE
:101AA000B0914C0217968D919C91189791838083E9
:101AB000F3940E94B016DC01CB0188199909AA0998
:101AC000BB09C897A105B10520F4F3E0FF15C0F6E6
:101AD00033C0F11031C00E94B016DC01CB01841973
:101AE0009509A609B70981369A4EA105B10508F0F6
:101AF0005DCF2C2D30E02F5F3F4F8E2D90E0019673
:101B0000289FB001299F700D389F700D1124675ECA
:101B10007F4F660F771F072E000C880B990B0E94D2
:101B2000761681E08E0D8370E82E81E08C0D6AE0E0
:101B30000E945221C92E67CFD12C198ADF1408F0D8
:101B40003FC023EC2F8780914502888BFE013196A0
:101B5000ED0DF11DED0DF11D008111811C870B872D
:101B600020E030E040E050E0BE01675F7F4F8091B1
:101B70004B0290914C020E940E0A0E94B0164B013B
:101B80005C010E94B016DC01CB0188199909AA09F1
:101B9000BB09813E9105A105B10550F480914B022E
:101BA00090914C020E94AC07898B803851F7DF2C52
:101BB00065E070E080E090E00E947616D394BECF9E
:101BC0008989803809F087CFE0914B02F0914C026F
:101BD00087859089009709F47ECF3685209145024C
:101BE000321379CF9093440280934302809149024B
:101BF00090914A020E94D5136AE070E080E090E084
:101C00000E947616609143027091440280914B02CB
:101C100090914C020E94360B1C861B86E1E8EF87F0
:101C200087E0F82E08E310E020E030E040E050E0EC
:101C3000BE01675F7F4F80914B0290914C020E94E2
:101C40000E0A811119C0FA94F1100FC064E279E014
:101C500080914B0290914C020E94360B84E299E0F5
:101C6000909344028093430236CF63E070E080E0BB
:101C700090E00E947616D6CFE0914B02F0914C0294
:101C800082A58D7F82A78091430290914402619644
:101C90000FB6F894DEBF0FBECDBFDF91CF911F917D
:101CA0000F91FF90EF90DF90CF90BF90AF909F90FB
:101CB0008F907F906F905F904F903F902F900895FE
:101CC0008F929F92AF92BF92DF92EF92FF920F930B
:101CD0001F93CF93DF93CDB7DEB72A970FB6F89453
:101CE000DEBF0FBECDBF80914B0290914C020E948F
:101CF000AC07D82E8091430290914402843229E0AF
:101D0000920709F4E2C033ECD31203C021E0209320
:101D10004D02209145022111D8C02D2D2D7F243C4C
:101D200009F0B0C0E0914B02F0914C027F01A7E0B6
:101D3000EA0EF11C27813085328721872785B4EC94
:101D4000DB1228C0409148028091460290914702E0
:101D500030E0341789F05C010396BC0163507109CF
:101D6000DB015C91521306C0D50111968D919C91B7
:101D7000129704C03F5FEDCF8FEF9FEF9A83898367
:101D800008E310E022E030E0AE014F5F5F4FB701A3
:101D9000CF0175C030E03A8729872115310509F454
:101DA0005EC0892BC1F45091480280914602909107
:101DB000470240E0451709F44FC0FC010396DC01DF
:101DC00012976D917C916217730719F4208130E0AE
:101DD00048C04F5FEFCF1C821B8280910D01909114
:101DE0000E019C012F5F3F4F30930E0120930D0198
:101DF0009E838D8386EC8F8308E310E022E030E041
:101E0000AE01475F5F4FBE016F5F7F4FCF010E9402
:101E10000E0A882309F10E94B0164B015C018091E3
:101E20004B0290914C020E94AC07863C71F00E94DC
:101E3000B016DC01CB0188199909AA09BB09853FB5
:101E40009140A105B10558F307C0E0914B02F09114
:101E50004C022785308905C02FEF3FEF02C020E0FC
:101E600030E03A83298308E310E022E030E0AE015D
:101E70004F5F5F4FB70180914B0290914C020E94DF
:101E80000E0A23C035ECD31220C0A0914B02B091B2
:101E90004C02209146023091470280E09091480226
:101EA000891798F4F90193E0899FE00DF11D112441
:101EB0006181728117964D915C911897641775072F
:101EC00011F4128211828F5FE9CF8D2D2A960FB601
:101ED000F894DEBF0FBECDBFDF91CF911F910F9160
:101EE000FF90EF90DF90BF90AF909F908F900895FC
:101EF000AF92BF92CF92DF92EF92FF920F931F9318
:101F0000CF93DF931F92CDB7DEB75C01D62EE72EBD
:101F1000FC018585811105C0C5010E94B3128111A4
:101F200006C0F50113861586148680E065C040E082
:101F300060EFC5010E94441201E0F12CC12C11E0B8
:101F4000C5010E94F111682FC50169830E94F1113A
:101F50006981613019F48130B9F433C04F2D50E0FC
:101F600068131BC0F5018385181730F4E40FF51FC3
:101F70008381802349F402C0181731F060E01930E2
:101F800058F4F501148708C0F501EF0DF11D8381A8
:101F9000802B838361E009C0C12EF501E40FF51F9A
:101FA0009381802F809589238383C5010E94151218
:101FB0001F5F000F11F4F39401E0F7E0FF1508F044
:101FC000BFCF113408F4ADCFF501C386C11002C0F4
:101FD00081E08587F5018381882309F4A2CFD501AB
:101FE0001396ED2DFE2D9501255F3F4F8D91819329
:101FF000A217B307D9F781E00F90DF91CF911F911E
:102000000F91FF90EF90DF90CF90BF90AF90089529
:10201000CF92DF92EF92FF920F931F93CF93DF93B4
:102020006C017A018B01C0E0D0E0CE15DF0589F0AC
:10203000D8016D918D01D601ED91FC910190F08157
:10204000E02DC6010995892B11F47E0102C021966D
:10205000ECCFC701DF91CF911F910F91FF90EF90CF
:10206000DF90CF900895FC01538D448D252F30E0F3
:10207000842F90E0821B930B541710F0CF96089595
:1020800001970895FC01918D828D981761F0828DE2
:10209000DF01A80FB11D5D968C91928D9F5F9F739C
:1020A000928F90E008958FEF9FEF0895FC01918D3E
:1020B000828D981731F0828DE80FF11D858D90E0AB
:1020C00008958FEF9FEF0895FC01918D228D892F48
:1020D00090E0805C9F4F821B91098F739927089530
:1020E00086EA91E00E94641021E0892B09F420E047
:1020F000822F0895FC01848DDF01A80FB11DA35A22
:10210000BF4F2C91848D90E001968F739927848F17
:10211000A689B7892C93A089B1898C9180648C930E
:10212000938D848D981306C00288F389E02D8081F9
:102130008F7D80830895EF92FF920F931F93CF932B
:10214000DF93EC0181E0888F9B8D8C8D981305C007
:10215000E889F989808185FD24C0F62E0B8D10E079
:102160000F5F1F4F0F731127E02E8C8DE8120CC0EC
:102170000FB607FCFACFE889F989808185FFF5CF92
:10218000CE010E947A10F1CF8B8DFE01E80FF11D78
:10219000E35AFF4FF0820B8FEA89FB8980818062CE
:1021A00007C0EE89FF896083E889F98980818064AE
:1021B000808381E090E0DF91CF911F910F91FF909C
:1021C000EF900895CF93DF93EC01888D8823C9F0B9
:1021D000EA89FB89808185FD05C0A889B9898C9130
:1021E00086FD0FC00FB607FCF5CF808185FFF2CFCB
:1021F000A889B9898C9185FFEDCFCE010E947A1014
:10220000E7CFDF91CF91089580E090E0892B29F00E
:102210000E94701081110C94000008950E94DB222E
:102220006115710579F0FB0101900020E9F7319704
:10223000AF01461B570BDC01ED91FC910280F3814D
:10224000E02D099480E090E008954F925F926F92A4
:102250007F92EF92FF920F931F93CF93DF93CDB7AF
:10226000DEB7A1970FB6F894DEBF0FBECDBF7C01DD
:10227000FA01CB0119A2223008F42AE08E010F5D89
:102280001F4F422E512C612C712CBF01A3019201D2
:102290000E948621F901CA01015011096A3014F423
:1022A000605D01C0695CD8016C93232B242B252B26
:1022B00061F7B801C7010E941011A1960FB6F894FA
:1022C000DEBF0FBECDBFDF91CF911F910F91FF9069
:1022D000EF907F906F905F904F9008950F931F93B2
:1022E000CF93DF93EC010E9410118C016DE771E038
:1022F000CE010E941011800F911FDF91CF911F918D
:102300000F9108951F920F920FB60F9211242F93E1
:102310003F934F935F936F937F938F939F93AF936D
:10232000BF93EF93FF9386EA91E00E947A10FF91AA
:10233000EF91BF91AF919F918F917F916F915F913D
:102340004F913F912F910F900FBE0F901F901895B6
:102350001F920F920FB60F9211242F938F939F937A
:10236000EF93FF93E091B601F091B7018081E09186
:10237000BC01F091BD0182FD12C090818091BF012E
:102380008F5F8F732091C001821751F0E091BF01E0
:10239000F0E0EA55FE4F958F8093BF0101C0808128
:1023A000FF91EF919F918F912F910F900FBE0F9002
:1023B0001F901895DC0180E0615090F09D91982766
:1023C000E92FEF70F0E0EE51FC4F249192959F7051
:1023D000E92FF0E0EE50FC4FE4918E2F8227ECCFF6
:1023E0000895FC0190810180F281E02DF8948181B3
:1023F000892B81832281892F809528232283A2E043
:10240000B0E01197F1F7218182238183A0E1B0E050
:102410001197F1F780817894E6E6F0E03197F1F7D3
:10242000982381E009F480E00895FC019081018007
:10243000F281E02D892F809560FF12C0F8942281EF
:10244000822382838181892B8183A0E1B0E011976F
:10245000F1F78281982B928378948AE690E011C0FC
:10246000F8942281822382838181892B8183AEE744
:10247000B0E01197F1F78281982B9283789486E0EF
:1024800090E00197F1F70895CF92DF92EF92FF92DB
:102490000F931F93CF93DF931F92CDB7DEB76C01DD
:1024A000E62E08E010E0FF24F39461E08F2D8E21EA
:1024B00009F460E0C60149830E941512FF0C015027
:1024C000110949810115110581F7411115C0F894D1
:1024D000D6011196ED91FC91129791818C91809586
:1024E000892381831196ED91FC91129792818C91B1
:1024F00080958923828378940F90DF91CF911F91EB
:102500000F91FF90EF90DF90CF900895CF92DF92E0
:10251000EF92FF920F931F93CF93DF931F92CDB74C
:10252000DEB78C01F62E40E065E579830E94441207
:10253000CF2C7981D72E760188E0E80EF11CF601C8
:1025400061916F0140E0C8010E944412CE14DF0483
:10255000B1F70F90DF91CF911F910F91FF90EF9006
:10256000DF90CF900895FC0190810180F281E02DF1
:10257000F8948181292F20958223818378948DE797
:10258000815009F130813923D9F3F8948281822373
:1025900082838181892B81837894ACEBB3E011979E
:1025A000F1F7F894818128232183A8E8B0E01197FE
:1025B000F1F78081982381E009F080E07894E0E3EE
:1025C000F3E03197F1F7089561E00C940C04EF9279
:1025D000FF921F93CF93DF931F92CDB7DEB77C019D
:1025E00069830E9424046981862F0E94E006182FC7
:1025F000C7010E94E412812F0F90DF91CF911F91AC
:10260000FF90EF90089561EE0C94E712EF92FF9225
:102610001F93CF93DF9300D0CDB7DEB77C014A8301
:1026200069830E9424046981862F8F7180620E94D1
:10263000E006182F4A81842F0E94E006C7010E94FD
:10264000E412812F0F900F90DF91CF911F91FF9097
:10265000EF900895CF92DF92EF92FF920F931F9326
:10266000CF93DF9300D01F92CDB7DEB77C01142F3C
:102670002A835B8369830E9424046981862F8F717A
:1026800080620E94E006082FC12E5B81D52E2A8130
:10269000120F1C1531F0F60181916F010E94E006C6
:1026A000F8CFC7010E94E412802F0F900F900F9077
:1026B000DF91CF911F910F91FF90EF90DF90CF901E
:1026C0000895EF92FF921F93CF93DF931F92CDB7A0
:1026D000DEB77C0169830E9424046981862F8F7193
:1026E0000E94E0068FEF0E94E006182FC7010E94AB
:1026F000E412812F0F90DF91CF911F91FF90EF9007
:102700000895EF92FF920F931F93CF938C017B015B
:1027100066E00E946113C82FC77D82E0E816F104CD
:1027200031F4C0628BE990E0A0E0B0E00DC0EA9423
:10273000EF2829F085E590E0A0E0B0E005C0C86092
:1027400081E490E0A0E0B0E0F801808B918BA28B57
:10275000B38B4C2F66E0C8010E94061366E0C801E7
:102760000E94611391E08C1390E0892FCF911F910B
:102770000F91FF90EF900895CF93DF93EC0160E00D
:102780000E94611381FD0EC0482F426060E0CE01BF
:102790000E94061365E070E080E090E0DF91CF9149
:1027A0000C947616DF91CF910895CF93DF93EC01CF
:1027B00060E00E940004888999890E946D166DE18D
:1027C000CE010E94611381FF07C0888999890E9408
:1027D0006D16CE010E94031360E0CE010E946113CA
:1027E000482F4E7F60E0CE010E94061362E0CE01CA
:1027F0000E946113EEE9F3E0E49141E050E001C092
:10280000440FEA95EAF7482B62E0CE01DF91CF91C1
:102810000C940613CF93DF93EC010E94BC1360E08D
:10282000CE010E946113482F416060E0CE010E94FA
:10283000061340E767E0CE010E94061361E0CE0177
:102840000E9400048985882349F02E85AE01475FE8
:102850005F4F6AE0CE010E942A1314C062E0CE01ED
:102860000E946113EEE9F3E0E49121E030E001C061
:10287000220FEA95EAF72095422F482362E0CE0125
:102880000E9406136DE1CE010E94611381FF05C015
:10289000CE01DF91CF910C940313DF91CF91089576
:1028A0001F93CF93DF93EC01888199812A813B812B
:1028B0008217930719F061E00E9431168A819B818B
:1028C000288139812817390719F061E00E943116F3
:1028D0001FB7F89480911C04811127C0E4ECF3E049
:1028E0008491E8EDF3E09491E82FF0E0EE0FFF1F04
:1028F000EE5FFB4FA591B491EC91E92321F461E0E7
:102900008AE00E94E51561E08AE00E9431168CB5EC
:1029100080618CBD8CB580648CBD61E08DE00E94CF
:10292000311661E08BE00E94311680911C048F5FAC
:1029300080931C041FBF60E0CE010E94000461E090
:10294000CE010E940C0465E070E080E090E00E94FF
:1029500076164CE060E0CE010E9406134FE564E07D
:10296000CE010E94061362E070E0CE010E94811346
:10297000882311F081E08E8366E0CE010E9461130E
:10298000182F60E070E0CE010E948113CE010E94FA
:10299000240480E50E94E00683E70E94E006CE0161
:1029A0000E94E41240E06DE1CE010E94061340E077
:1029B0006CE1CE010E940613188640E767E0CE0165
:1029C0000E9406134CE465E0CE010E94061362EEFD
:1029D000CE010E94E712CE010E940313CE010E9495
:1029E000BC1360E0CE010E946113482F4E7F60E06F
:1029F000CE010E940613115081E01E3F08F080E0D6
:102A0000DF91CF911F9108953FB7F89480912204F0
:102A100090912304A0912404B091250426B5A89B8D
:102A200005C02F3F19F00196A11DB11D3FBFBA2F60
:102A3000A92F982F8827820F911DA11DB11DBC01C0
:102A4000CD0143E0660F771F881F991F4A95D1F784
:102A50000895AF92BF92CF92DF92EF92FF920F93C1
:102A60001F93CF93DF938B01BC0180910004909161
:102A700001040E94861240E06EEB80910004909168
:102A800001040E944412E801680189E0C80ED11CCB
:102A9000A0900004B090010488E0E82EF12C01E041
:102AA00010E0C5010E94F1118111102B000F81E08F
:102AB000E81AF108B1F71993CC15DD0549F78091B3
:102AC0000004909101040E94B31291E0813009F05A
:102AD00090E0892FDF91CF911F910F91FF90EF90A0
:102AE000DF90CF90BF90AF9008950F931F93CF9337
:102AF000DF93CDB7DEB729970FB6F894DEBF0FBED0
:102B0000CDBFFC012081203161F18C018091000456
:102B1000909101040E94B312882309F1BE016F5FF6
:102B20007F4FC8010E9429158823C9F068E0CE01B3
:102B300001960E94DA119985891311C08D818F3316
:102B400061F020F48F3159F489E00CC08F3519F011
:102B50008F3739F004C08BE005C08AE003C080E005
:102B600001C08CE029960FB6F894DEBF0FBECDBF32
:102B7000DF91CF911F910F9108950F931F93CF93E2
:102B8000DF938C01C0E0D0E0F801EC0FFD1F6491F1
:102B9000662371F0E091A601F091A7010190F08108
:102BA000E02D86EA91E00995892B11F02196ECCF72
:102BB0006DE771E086EA91E00E9410118C0F9D1F75
:102BC000DF91CF911F910F91089590E0FC01EA5E93
:102BD000FB4F3491FC01E253FC4F2491FC01E6547D
:102BE000FC4FE491EE2309F43BC0332339F1333039
:102BF00091F038F43130A9F0323001F584B58F7D91
:102C000012C0373091F03830A1F03430B9F48091EF
:102C100080008F7D03C0809180008F77809380003B
:102C20000DC084B58F7784BD09C08091B0008F77C7
:102C300003C08091B0008F7D8093B000F0E0EE0F74
:102C4000FF1FE45FFB4FA591B4918FB7F894EC910F
:102C5000611103C020952E2301C02E2B2C938FBF12
:102C60000895CF93DF9390E0FC01E253FC4F249151
:102C7000FC01E654FC4F8491882361F190E0880FB9
:102C8000991FFC01EE5FFB4FC591D491FC01E45FFD
:102C9000FB4FA591B491611109C09FB7F894888149
:102CA000209582238883EC912E230BC0623061F43F
:102CB0009FB7F8943881822F809583238883EC9185
:102CC0002E2B2C939FBF06C08FB7F894E8812E2B34
:102CD00028838FBFDF91CF9108958330910528F02D
:102CE000880F991F04970197F1F708958F929F928B
:102CF000AF92BF92CF92DF92EF92FF926B017C0175
:102D00000E9404154B015C01C114D104E104F104DB
:102D1000F1F00E940415DC01CB0188199909AA0978
:102D2000BB09883E9340A105B10570F321E0C21AAA
:102D3000D108E108F10888EE880E83E0981EA11CF6
:102D4000B11CC114D104E104F10419F7DDCFFF90E7
:102D5000EF90DF90CF90BF90AF909F908F900895AD
:102D60002FB7F89460911E0470911F048091200485
:102D7000909121042FBF08951F920F920FB60F92CA
:102D800011242F933F938F939F93AF93BF93809181
:102D90001E0490911F04A0912004B0912104309151
:102DA0001D0426E0230F2D3720F40296A11DB11D2E
:102DB00005C029E8230F0396A11DB11D20931D0412
:102DC00080931E0490931F04A0932004B0932104C9
:102DD0008091220490912304A0912404B0912504B1
:102DE0000196A11DB11D8093220490932304A0930A
:102DF0002404B0932504BF91AF919F918F913F918F
:102E00002F910F900FBE0F901F901895CF93DF93C7
:102E1000CDB7DEB762970FB6F894DEBF0FBECDBF59
:102E2000789484B5826084BD84B5816084BD85B5A5
:102E3000826085BD85B5816085BD80916E008160B1
:102E400080936E0010928100809181008260809357
:102E50008100809181008160809381008091800059
:102E60008160809380008091B10084608093B10084
:102E70008091B00081608093B00080917A0084607E
:102E800080937A0080917A00826080937A008091AA
:102E90007A008E7F80937A0080917A008068809398
:102EA0007A001092C10088E18093600081E28093F3
:102EB00060008091600080648093600080917A005F
:102EC0008F7780937A008AB183618AB987B18F63E3
:102ED00087B9219A83B7846083BF83B7816083BF3A
:102EE00060E083E00E9431168DEC93E00E94501464
:102EF00066E08DEC93E00E946113887F482F456067
:102F000066E08DEC93E00E94061362E070E08DECC9
:102F100093E00E94811361E088E00E94311660E036
:102F200088E00E94E5156AE070E080E090E00E9491
:102F3000761661E088E00E94E5156AE070E080E0C6
:102F400090E00E94761667E082EF93E00E94C2064E
:102F500066E086EF93E00E94C2062A9A229A239A9C
:102F6000259A1092E9031092EA03E8E9F3E08591CB
:102F70009491082FEAE9F3E01491EBE9F3E0E4918E
:102F8000E093EB03ECE9F3E0E491E093EC03EDE98B
:102F9000F3E0E491E093ED037C018E2D801B81171B
:102FA00050F4F701649185EE93E00E947A04FFEFFC
:102FB000EF1AFF0AF2CF1092EF0385EE93E00E9422
:102FC00097068DEA91E09093F1038093F00385EEEC
:102FD00093E00E94970682E08093EE03E091B601B1
:102FE000F091B7018083E091B201F091B3011082BA
:102FF000E091B401F091B50188E080831092BE01A8
:10300000E091BA01F091BB0186E08083E091B801C4
:10301000F091B901808180618083E091B801F091E5
:10302000B901808188608083E091B801F091B90195
:10303000808180688083E091B801F091B90180813E
:103040008F7D808385E08093450262E471E085EEA8
:1030500093E00E946E1182EA91E00E94BD1580917A
:10306000490290914A020E9450148091450288239F
:1030700039F084E299E090934402809343020EC0B9
:1030800086E090E00E94AE21909347028093460232
:1030900010924802109244021092430281E68093FB
:1030A000560241E665E08091490290914A020E94F1
:1030B000061360E070E08091490290914A020E94FC
:1030C000811380914B0290914C0221E0FC0121A7D9
:1030D00020914502222319F00E94B30C06C0609192
:1030E0004302709144020E94360B8AE991E00E94EB
:1030F000BD1585EE93E00E9497066DE471E085EEC4
:1031000093E00E946E1166E571E085EE93E00E9407
:103110006E118BE891E00E94BD1561E082E10E9492
:10312000311661E082E10E94E515E0910004F09122
:103130000104138615861486DF011B9633961E92B2
:10314000AE17BF07E1F71092FE031092FF0311E0E4
:10315000BE016F5F7F4F80910004909101040E9437
:10316000780F882309F45EC067E0CE0101960E94C3
:10317000DA1198858913ECCF8091FA03811127C069
:1031800080910004909101040E94B312BE016F5F10
:103190007F4F80910004909101040E94861240E0CC
:1031A00064EB80910004909101040E94441280918C
:1031B0000004909101040E94F111082F80910004F5
:1031C000909101040E94B312002309F4AEC2009151
:1031D000FB03CE0101960E947515801718F48091AB
:1031E000FB0304C0CE0101960E9475158093FB037A
:1031F0008091FE038F5F8093FE038981883261F0A6
:1032000030F4803149F0823209F0A2CF05C08B330F
:1032100019F0823409F09CCF8091FF038F5F809377
:10322000FF0396CF7E01F6E0EF0EF11CB2E83B2ED5
:1032300016EFC12EDD24DA940E94600E6CE571E079
:1032400086EA91E00E946E1164E671E086EA91E000
:103250000E946E1180910004909101040E94B312AB
:1032600040E06CEC80910004909101040E944412B3
:103270004091FA0364E480910004909101040E945B
:1032800044128091FC038823D9F1E091FB03E950BB
:10329000E33040F4F0E0EE0FFF1FE45EFE4F0081EC
:1032A000118102C00EEE12E08091FD03882311F11E
:1032B0008091FA0381111EC00E94B0164B015C017F
:1032C0002801110F6608770880910004909101048D
:1032D0000E94F1118130A1F00E94B016DC01CB01F7
:1032E00084199509A609B70988159905AA05BB058A
:1032F00058F306C0B801110F880B990B0E9476167F
:1033000068EE73E080E090E00E947616E0910004A1
:10331000F0910104138615861486DF011B96CF01F8
:1033200003961E92A817B907E1F7BE01655F7F4FAC
:10333000CF010E94780F882349F067E0CE010B96F9
:103340000E94DA119A89891709F416C260E070E0C8
:103350008EEF92EC6093A2017093A3018093A4017D
:103360009093A5016AE671E086EA91E00E9410114F
:103370004090A2015090A3016090A4017090A5011B
:10338000A3019201C301B2010E944D21882319F0CB
:1033900061E771E01AC053014201E894B7F82FEFDA
:1033A0003FEF4FE75FE7C501B4010E944D21811156
:1033B00011C02FEF3FEF4FE75FE7C501B4010E9457
:1033C000F51F18163CF465E771E086EA91E00E946B
:1033D000101189C02FEF3FEF4FE75FE4C301B20147
:1033E0000E94DB2018161CF469E771E0EECF2FEF86
:1033F0003FEF4FE75FECC301B2010E94F51F87FD6D
:10340000F3CF20E030E0A901C301B2010E94F51F13
:1034100087FF0FC0E091A601F091A7010190F08114
:10342000E02D6DE286EA91E0099577FA709477F8DD
:1034300070942AE037ED43EA5BE3C301B2010E94D6
:10344000891F4B015C010E94FA1F2B013C010E9465
:1034500029209B01AC01C501B4010E94881F4B01CA
:103460005C012AE0B301A20186EA91E00E942511E5
:10347000E091A601F091A7010190F081E02D6EE2AC
:1034800086EA91E0099520E030E040E251E4C50190
:10349000B4010E94E0204B015C010E94FA1F2B0145
:1034A000612C712C2AE0B301A20186EA91E00E940E
:1034B0002511C301B2010E9429209B01AC01C50165
:1034C000B4010E94881F20E030E040E251E40E94F5
:1034D000E0200E94FA1FAB0160E070E02AE086EA7B
:1034E00091E00E9425116DE771E086EA91E00E946B
:1034F00010116091A2017091A3018091A40190919B
:10350000A5018E010F5F1F4F24E044E00E94021DC1
:10351000F801A6E0B1E081918D93EE15FF05D9F792
:103520008CE390E0909301018093000160E871E0EA
:1035300086EA91E00E94101162E071E086EA91E073
:103540000E946E119DE4692E809143029091440285
:103550008432994051F10E94B016809143029091BB
:1035600044028432994009F11E861D8680910D0126
:1035700090910E019C012F5F3F4F30930E012093DD
:103580000D01988B8F87698A08E310E02BE030E00B
:1035900042E051E0BE01655F7F4F80914B02909108
:1035A0004C020E940E0A811133C084E0782E7A9476
:1035B000772009F43BC18091430290914402843208
:1035C000994009F433C10E94600E67E1809149027D
:1035D00090914A020E94611381FD08C080914B02C4
:1035E00090914C02FC0122A520FFA2C064EF71E083
:1035F00080E090E00E947616809100019091010198
:1036000001979093010180930001892B09F09CCFD1
:103610001092A10164EF71E080E090E00E947616C4
:1036200060902A0370902B0320E9621622E0720654
:1036300009F008F471C00091980210919902A80154
:103640000930110510F048E050E06AE972E0CE015F
:103650000B960E94E022C601801B910B860D971DE0
:1036600090932B0380932A034AE950E0401B510BAF
:10367000B80166567D4F80E992E00E94E92285EE0E
:1036800093E00E94970669E871E085EE93E00E945E
:1036900010118F849888A988BA882AE0B501A401FE
:1036A00085EE93E00E9425116BE971E085EE93E0D1
:1036B0000E9410114B845C846D847E842AE0B301E7
:1036C000A20185EE93E00E9425116DE771E085EE81
:1036D00093E00E94101169E871E086EA91E00E948F
:1036E00010112AE0B501A40186EA91E00E9425119B
:1036F0006BE971E086EA91E00E9410112AE0B301C3
:10370000A20186EA91E00E9425116DE771E086EA48
:1037100091E00E94101184CF64EF71E080E090E0AE
:103720000E9476160E94041187CD1093FA034FCDA4
:103730001E861D8620910D0130910E01A9014F5F5B
:103740005F4F50930E0140930D01388B2F87398ABC
:1037500008E310E020E030E040E050E0BE01655FAB
:103760007F4F0E940E0A811141CF67E670E080E032
:1037700090E00E9476161BCF809100049091010486
:103780000E94B3128823F1F1BE016F5F7F4FCE011B
:103790000B960E9429158823A9F168E0CE010196B5
:1037A0000E94DA11998589132DC0698128E0629FF2
:1037B000B00111248A81282F30E0322F2227330FC5
:1037C000330F330F262B372B8B858031C9F4688557
:1037D00070E08F81AB01481B5109CA019695982F63
:1037E0008827979587950E94722160517109207FE3
:1037F00053E0220F331F5A95E1F7620F731F04C085
:10380000B90102C060E874EE613854EE75070CF43B
:103810009DCD072E000C880B990B0E942B2020E0D9
:1038200030E040E05CE30E94E02094CD80914902CA
:1038300090914A020E94D5130E94B30CD7CE1092E9
:10384000A9011092A80188EE93E0A0E0B0E0809377
:10385000AA019093AB01A093AC01B093AD0186E2B5
:1038600091E09093A7018093A60185EC90E090935E
:10387000B3018093B20184EC90E09093B501809302
:10388000B40180EC90E09093B7018093B60181EC95
:1038900090E09093B9018093B80182EC90E090930E
:1038A000BB018093BA0186EC90E09093BD018093B8
:1038B000BC011092BF011092C0011092C101109280
:1038C000C20160E081E10E943116EFEDF3E0E49186
:1038D000E0930E04EBECF3E0E491F0E0EE0FFF1F59
:1038E000E055FC4F859194919093100480930F04C0
:1038F0001092190410921B0410921A04E9E1F4E0EA
:10390000129284E0E131F807D9F78EE094E09093C9
:103910000104809300041092FE031092FF031092A2
:10392000FA0389E08093FB0381E08093FC0380939A
:10393000FD0310920D0410920C041092E8031092F3
:10394000E7038093EE031092F1031092F00388E3F3
:1039500091E09093E6038093E5038DEC93E02AE0F9
:1039600030E03093CE032093CD0325E030E0309358
:10397000D0032093CF031092D30320E22093D403EB
:103980001092D50325E02093DB0345E050E060E092
:1039900070E04093E1035093E2036093E30370937C
:1039A000E4031092D60390938B0280938A0220E95D
:1039B00032E030932B0320932A0328E333E0309343
:1039C0003703209336032CE233E0309383022093B5
:1039D0008202109286021092870210928802109240
:1039E0008902109285021092840210925B029093D9
:1039F0004A02809349028BE592E090934C028093B7
:103A00004B020895EF920F931F93CF93DF93E8013A
:103A100047FD02C034E001C034E1E42F440FFF0B46
:103A2000F7FF03C0F195E195F109E32E022F2E2F48
:103A3000AE010E94221DCE01DF91CF911F910F9107
:103A4000EF9008954F925F926F927F929F92AF9204
:103A5000BF92CF92DF92EF92FF920F931F93CF937B
:103A6000DF93CDB7DEB729970FB6F894DEBF0FBE50
:103A7000CDBF6A01122FB02E2BE3201720F0FF24B8
:103A8000F394F00E02C0BCE3FB2E0F2D27E0AE0135
:103A90004F5F5F4F0E94B01EAC018981982F9970D3
:103AA000913031F0E1FC06C0E0FE06C090E205C0B6
:103AB0009DE203C09BE201C090E0EE2DE07183FF28
:103AC0003CC0911102C083E001C084E0811718F46A
:103AD000212F281B01C020E0E1110BC0F601822F2D
:103AE00030E2882319F031938150FBCFC20ED11CF4
:103AF00020E0992329F0D6019C93F60131966F01BD
:103B0000C6010396E2FE0AC03EE4D6013C9341E4BE
:103B100011964C93119712963C9306C03EE6F6011F
:103B2000308341E641833283FC01322F40E233236C
:103B300009F442C041933150FACF82FF44C0911141
:103B400002C083E001C084E0811718F4212F281BF4
:103B500001C020E0E1110BC0F601822F30E2882382
:103B600019F031938150FBCFC20ED11C20E0992374
:103B700029F0D6019C93F60131966F01C601039698
:103B8000E2FE0BC039E4D6013C933EE411963C932F
:103B9000119736E412963C9307C039E6F60130835C
:103BA0003EE6318336E63283FC01322F40E2332396
:103BB00019F041933150FBCFFC01E20FF11D10824F
:103BC0008EEF9FEFB7C0F1E0911101C0F0E06F2FD1
:103BD00070E01416150624F49A012F5F3F4F02C0BF
:103BE00021E030E0260F371FBB2029F06B2D70E05D
:103BF0006F5F7F4F02C060E070E0260F371F612FBC
:103C000070E0261737071CF4121B212F01C020E09B
:103C10003E2D387159F4D601322F60E2332319F06A
:103C20006D933150FBCFC20ED11C20E0FF2331F049
:103C3000D6019C93B6016F5F7F4F6B01E1110BC002
:103C4000F601922F30E3992319F031939150FBCF75
:103C5000C20ED11C20E09F2D940F3A81782F7071F5
:103C6000A72E84FF03C0313309F49150191624F4B0
:103C7000993018F098E001C091E0E42F852F57FFAC
:103C800002C0E0E080E06E2F782FE0E0F0E0AEE2EE
:103C90009A2E3A01691A71082A01461A570A0B2D01
:103CA00010E01195019511096F3F8FEF780729F406
:103CB000D6019C92C60101966C014617570784F005
:103CC000661677066CF47F01E40CF51CA1E0B0E009
:103CD000AC0FBD1FEA0EFB1ED7011196BC9002C0AF
:103CE00090E3B92E615071093196C60101967C01AD
:103CF0006017710724F0D601BC926C01D5CF641710
:103D0000750741F4363320F4353321F4A11002C095
:103D100081E3B82EF601B082F701822F90E288236A
:103D200019F091938150FBCFF701E20FF11D108242
:103D300080E090E029960FB6F894DEBF0FBECDBFAD
:103D4000DF91CF911F910F91FF90EF90DF90CF9077
:103D5000BF90AF909F907F906F905F904F9008952D
:103D6000283008F027E03327DA01990F311D87FD4D
:103D7000916000966105710539F432602E5F3D93C4
:103D800030E32A95E1F708959F3F30F080387105C0
:103D9000610509F03C5F3C5F3D93913008F080681D
:103DA000911DDF93CF931F930F93FF92EF92192FE3
:103DB000987F9695E92F96959695E90FFF27EE53F4
:103DC000FF4F99273327EE24FF24A701E701059031
:103DD0000894079428F4360FE71EF81E491F511D5A
:103DE000660F771F881F991F0694A1F70590079407
:103DF00028F4E70EF81E491F561FC11D770F881FB4
:103E0000991F661F0694A1F70590079428F4F80EF1
:103E1000491F561FC71FD11D880F991F661F771F87
:103E20000694A1F70590079420F4490F561FC71F69
:103E3000D81F990F661F771F881F0694A9F78491D2
:103E40001095177041F0D695C79557954795F794FB
:103E5000E7941A95C1F7E8E6F0E06894159015919B
:103E600035916591959105907FE27395E118F10A7E
:103E7000430B560BC90BD009C0F7E10CF11E431FD1
:103E8000561FC91FD01D7EF4703311F48A95E6CFFA
:103E9000E894015030F0080F0AF40027021708F4E4
:103EA000202F2395022F7A3328F079E37D932A95EA
:103EB000E9F710C07D932A9589F606949795679542
:103EC000379517951794E118F10A430B560BC90B58
:103ED000D00998F023957E9173957A3308F070E3BA
:103EE0007C932013B8F77E9170617D9330F08395B9
:103EF00071E37D9370E32A95E1F71124EF90FF9031
:103F00000F911F91CF91DF91992787FD909508958B
:103F10005058BB27AA270E94A01F0C94A1200E94E2
:103F2000932038F00E949A2020F039F49F3F19F432
:103F300026F40C9490200EF4E095E7FB0C948A2074
:103F4000E92F0E94B22058F3BA176207730784075B
:103F5000950720F079F4A6F50C94D4200EF4E095A2
:103F60000B2EBA2FA02D0B01B90190010C01CA0133
:103F7000A0011124FF27591B99F0593F50F4503EDE
:103F800068F11A16F040A22F232F342F4427585FD0
:103F9000F3CF469537952795A795F0405395C9F7E8
:103FA0007EF41F16BA0B620B730B840BBAF09150A0
:103FB000A1F0FF0FBB1F661F771F881FC2F70EC03F
:103FC000BA0F621F731F841F48F487957795679512
:103FD000B795F7959E3F08F0B0CF9395880F08F0FE
:103FE0009927EE0F9795879508950E94662008F40B
:103FF00081E008950E94BA2088F09F5798F0B92F69
:104000009927B751B0F0E1F0660F771F881F991F0D
:104010001AF0BA95C9F714C0B13091F00E94D420BB
:10402000B1E008950C94D420672F782F8827B85FCB
:1040300039F0B93FCCF3869577956795B395D9F765
:104040003EF490958095709561957F4F8F4F9F4F6F
:104050000895E89409C097FB3EF49095809570957B
:1040600061957F4F8F4F9F4F9923A9F0F92F96E9C4
:10407000BB279395F695879577956795B795F11139
:10408000F8CFFAF4BB0F11F460FF1BC06F5F7F4FD6
:104090008F4F9F4F16C0882311F096E911C07723E8
:1040A00021F09EE8872F762F05C0662371F096E8F1
:1040B000862F70E060E02AF09A95660F771F881FC0
:1040C000DAF7880F9695879597F90895990F000864
:1040D000550FAA0BE0E8FEEF16161706E807F907DA
:1040E000C0F012161306E407F50798F0621B730B75
:1040F000840B950B39F40A2661F0232B242B252BF6
:1041000021F408950A2609F4A140A6958FEF811D98
:10411000811D089597F99F6780E870E060E0089539
:104120009FEF80EC089500240A94161617061806CF
:104130000906089500240A941216130614060506AB
:104140000895092E0394000C11F4882352F0BB0F3C
:1041500040F4BF2B11F460FF04C06F5F7F4F8F4F9F
:104160009F4F089557FD9058440F551F59F05F3FDA
:1041700071F04795880F97FB991F61F09F3F79F089
:1041800087950895121613061406551FF2CF46950B
:10419000F1DF08C0161617061806991FF1CF86958D
:1041A0007105610508940895E894BB276627772771
:1041B000CB0197F908950E94662008F48FEF0895C7
:1041C0000E94F3200C94A1200E94932038F00E94BA
:1041D0009A2020F0952311F00C948A200C949020C2
:1041E00011240C94D5200E94B22070F3959FC1F346
:1041F000950F50E0551F629FF001729FBB27F00D95
:10420000B11D639FAA27F00DB11DAA1F649F6627E9
:10421000B00DA11D661F829F2227B00DA11D621F38
:10422000739FB00DA11D621F839FA00D611D221FF2
:10423000749F3327A00D611D231F849F600D211DD6
:10424000822F762F6A2F11249F5750409AF0F1F059
:1042500088234AF0EE0FFF1FBB1F661F771F881FC2
:1042600091505040A9F79E3F510580F00C948A2050
:104270000C94D5205F3FE4F3983ED4F38695779570
:104280006795B795F795E7959F5FC1F7FE2B880F68
:10429000911D9695879597F908950E946620880B41
:1042A000990B0895991B79E004C0991F961708F09F
:1042B000961B881F7A95C9F780950895AA1BBB1B8A
:1042C00051E107C0AA1FBB1FA617B70710F0A61B16
:1042D000B70B881F991F5A95A9F780959095BC0137
:1042E000CD01089597FB072E16F4009407D077FDB3
:1042F00009D00E945E2107FC05D03EF4909581957F
:104300009F4F0895709561957F4F0895A1E21A2EF1
:10431000AA1BBB1BFD010DC0AA1FBB1FEE1FFF1F69
:10432000A217B307E407F50720F0A21BB30BE40BB9
:10433000F50B661F771F881F991F1A9469F7609500
:104340007095809590959B01AC01BD01CF010895BA
:10435000EE0FFF1F0590F491E02D0994CF93DF93AA
:104360008230910510F482E090E0E0912804F09111
:10437000290420E030E0C0E0D0E0309711F1408126
:10438000518148175907C0F04817590761F48281D5
:104390009381209719F09B838A832BC090932904E3
:1043A0008093280426C02115310519F042175307C0
:1043B00018F49A01BE01DF01EF010280F381E02DC4
:1043C000DCCF2115310509F1281B390B24303105CB
:1043D00090F412968D919C9113976115710521F0BF
:1043E000FB019383828304C0909329048093280463
:1043F000FD01329644C0FD01E20FF31F81939193BA
:10440000225031092D933C933AC0209126043091DB
:104410002704232B41F42091110130911201309394
:1044200027042093260420910F01309110012115BB
:10443000310541F42DB73EB740911301509114015D
:10444000241B350BE0912604F0912704E217F307B3
:10445000A0F42E1B3F0B2817390778F0AC014E5FF4
:104460005F4F2417350748F04E0F5F1F5093270406
:10447000409326048193919302C0E0E0F0E0CF01E5
:10448000DF91CF9108950F931F93CF93DF93009700
:1044900009F48CC0FC013297138212820091280427
:1044A000109129040115110581F420813181820FB9
:1044B000931F20912604309127042817390779F596
:1044C000F0932704E093260471C0D80140E050E047
:1044D000AE17BF0750F412962D913C911397AD0182
:1044E0002115310509F1D901F3CF9D01DA0133839B
:1044F000228360817181860F971F8217930769F469
:10450000EC0128813981260F371F2E5F3F4F318301
:1045100020838A819B8193838283452B29F4F093A6
:104520002904E093280442C01396FC93EE9312975B
:10453000ED01499159919E01240F351FE217F307B0
:1045400071F480819181840F951F029611969C933E
:104550008E938281938113969C938E931297E0E0C1
:10456000F0E0D80112968D919C911397009719F065
:10457000F8018C01F6CF8D919C9198012E5F3F4FF1
:10458000820F931F209126043091270428173907A2
:1045900069F4309729F4109229041092280402C07B
:1045A000138212821093270400932604DF91CF9187
:1045B0001F910F91089581E090E0F8940C94FB22F4
:1045C000FB01DC0102C001900D9241505040D8F730
:1045D00008956817790768F4FB01DC01E40FF51F03
:1045E000A40FB51F02C002900E9241505040D8F760
:0A45F00008950C94E022F894FFCF28
:1045FA003C003030352D32332E33340A00010000AE
:10460A00002A048000C33C33CE3EE3EC5E00BC00CB
:10461A007701000000009B1008103310E2106410AC
:10462A004210561000000000F70408109902980280
:10463A00F70A5374617274696E672E2E005374619F
:10464A006E64696E670062792E2E2E00526561646F
:10465A00696E6700496E20666E00526561643A2091
:10466A00006E616E00696E66006F7666000D0A0064
:10467A0053656E64696E6720005265636569766585
:10468A0064207061636B65742023002061742000CC
:00000001FF
